{
  "_format": "hh-sol-artifact-1",
  "contractName": "Bets",
  "sourceName": "contracts/Bets.sol",
  "abi": [
    {
      "inputs": [
        {
          "internalType": "address",
          "name": "_profilesAddress",
          "type": "address"
        },
        {
          "internalType": "address",
          "name": "_gamesAddress",
          "type": "address"
        },
        {
          "internalType": "address",
          "name": "_tokenAddress",
          "type": "address"
        }
      ],
      "stateMutability": "nonpayable",
      "type": "constructor"
    },
    {
      "anonymous": false,
      "inputs": [
        {
          "indexed": true,
          "internalType": "uint256",
          "name": "id",
          "type": "uint256"
        },
        {
          "indexed": false,
          "internalType": "address",
          "name": "acceptor",
          "type": "address"
        },
        {
          "indexed": false,
          "internalType": "address",
          "name": "creator",
          "type": "address"
        }
      ],
      "name": "BetAccepted",
      "type": "event"
    },
    {
      "anonymous": false,
      "inputs": [
        {
          "indexed": true,
          "internalType": "uint256",
          "name": "id",
          "type": "uint256"
        }
      ],
      "name": "BetCancelled",
      "type": "event"
    },
    {
      "anonymous": false,
      "inputs": [
        {
          "indexed": true,
          "internalType": "uint256",
          "name": "id",
          "type": "uint256"
        },
        {
          "indexed": false,
          "internalType": "uint256",
          "name": "amount",
          "type": "uint256"
        },
        {
          "indexed": false,
          "internalType": "uint256",
          "name": "_odds",
          "type": "uint256"
        },
        {
          "indexed": false,
          "internalType": "uint256",
          "name": "teamId",
          "type": "uint256"
        },
        {
          "indexed": false,
          "internalType": "address",
          "name": "creator",
          "type": "address"
        }
      ],
      "name": "BetCreated",
      "type": "event"
    },
    {
      "anonymous": false,
      "inputs": [
        {
          "indexed": true,
          "internalType": "uint256",
          "name": "id",
          "type": "uint256"
        },
        {
          "indexed": false,
          "internalType": "uint256",
          "name": "teamId",
          "type": "uint256"
        }
      ],
      "name": "BetFinished",
      "type": "event"
    },
    {
      "anonymous": false,
      "inputs": [
        {
          "indexed": true,
          "internalType": "address",
          "name": "previousOwner",
          "type": "address"
        },
        {
          "indexed": true,
          "internalType": "address",
          "name": "newOwner",
          "type": "address"
        }
      ],
      "name": "OwnershipTransferred",
      "type": "event"
    },
    {
      "inputs": [],
      "name": "Mojo",
      "outputs": [
        {
          "internalType": "contract IERC20",
          "name": "",
          "type": "address"
        }
      ],
      "stateMutability": "view",
      "type": "function"
    },
    {
      "inputs": [
        {
          "internalType": "uint256",
          "name": "_id",
          "type": "uint256"
        }
      ],
      "name": "acceptBet",
      "outputs": [],
      "stateMutability": "nonpayable",
      "type": "function"
    },
    {
      "inputs": [
        {
          "internalType": "uint256",
          "name": "",
          "type": "uint256"
        }
      ],
      "name": "bets",
      "outputs": [
        {
          "internalType": "uint256",
          "name": "betId",
          "type": "uint256"
        },
        {
          "internalType": "uint256",
          "name": "amount",
          "type": "uint256"
        },
        {
          "internalType": "uint256",
          "name": "counter",
          "type": "uint256"
        },
        {
          "internalType": "uint256",
          "name": "teamPickedId",
          "type": "uint256"
        },
        {
          "internalType": "uint256",
          "name": "otherTeamPickedId",
          "type": "uint256"
        },
        {
          "internalType": "uint256",
          "name": "gameId",
          "type": "uint256"
        },
        {
          "internalType": "uint256",
          "name": "betCreated",
          "type": "uint256"
        },
        {
          "internalType": "uint256",
          "name": "betAccepted",
          "type": "uint256"
        },
        {
          "internalType": "address",
          "name": "creator",
          "type": "address"
        },
        {
          "internalType": "address",
          "name": "acceptor",
          "type": "address"
        },
        {
          "internalType": "address",
          "name": "winner",
          "type": "address"
        },
        {
          "internalType": "enum Bets.BetState",
          "name": "state",
          "type": "uint8"
        }
      ],
      "stateMutability": "view",
      "type": "function"
    },
    {
      "inputs": [],
      "name": "betsAccepted",
      "outputs": [
        {
          "internalType": "uint256",
          "name": "",
          "type": "uint256"
        }
      ],
      "stateMutability": "view",
      "type": "function"
    },
    {
      "inputs": [],
      "name": "betsCancelled",
      "outputs": [
        {
          "internalType": "uint256",
          "name": "",
          "type": "uint256"
        }
      ],
      "stateMutability": "view",
      "type": "function"
    },
    {
      "inputs": [],
      "name": "betsCreated",
      "outputs": [
        {
          "internalType": "uint256",
          "name": "",
          "type": "uint256"
        }
      ],
      "stateMutability": "view",
      "type": "function"
    },
    {
      "inputs": [],
      "name": "betsFinished",
      "outputs": [
        {
          "internalType": "uint256",
          "name": "",
          "type": "uint256"
        }
      ],
      "stateMutability": "view",
      "type": "function"
    },
    {
      "inputs": [
        {
          "internalType": "uint256",
          "name": "_id",
          "type": "uint256"
        }
      ],
      "name": "cancelBet",
      "outputs": [],
      "stateMutability": "nonpayable",
      "type": "function"
    },
    {
      "inputs": [
        {
          "internalType": "uint256",
          "name": "_gameId",
          "type": "uint256"
        },
        {
          "internalType": "uint256",
          "name": "_teamId",
          "type": "uint256"
        },
        {
          "internalType": "uint256",
          "name": "_amount",
          "type": "uint256"
        },
        {
          "internalType": "uint256",
          "name": "_counter",
          "type": "uint256"
        }
      ],
      "name": "createBet",
      "outputs": [],
      "stateMutability": "nonpayable",
      "type": "function"
    },
    {
      "inputs": [
        {
          "internalType": "uint256",
          "name": "_id",
          "type": "uint256"
        },
        {
          "internalType": "uint256",
          "name": "_winningTeamId",
          "type": "uint256"
        }
      ],
      "name": "finishBet",
      "outputs": [],
      "stateMutability": "nonpayable",
      "type": "function"
    },
    {
      "inputs": [
        {
          "internalType": "uint256",
          "name": "",
          "type": "uint256"
        },
        {
          "internalType": "uint256",
          "name": "",
          "type": "uint256"
        }
      ],
      "name": "gameBets",
      "outputs": [
        {
          "internalType": "uint256",
          "name": "",
          "type": "uint256"
        }
      ],
      "stateMutability": "view",
      "type": "function"
    },
    {
      "inputs": [],
      "name": "games",
      "outputs": [
        {
          "internalType": "contract Games",
          "name": "",
          "type": "address"
        }
      ],
      "stateMutability": "view",
      "type": "function"
    },
    {
      "inputs": [
        {
          "internalType": "uint256",
          "name": "_id",
          "type": "uint256"
        }
      ],
      "name": "getBet",
      "outputs": [
        {
          "components": [
            {
              "internalType": "uint256",
              "name": "betId",
              "type": "uint256"
            },
            {
              "internalType": "uint256",
              "name": "amount",
              "type": "uint256"
            },
            {
              "internalType": "uint256",
              "name": "counter",
              "type": "uint256"
            },
            {
              "internalType": "uint256",
              "name": "teamPickedId",
              "type": "uint256"
            },
            {
              "internalType": "uint256",
              "name": "otherTeamPickedId",
              "type": "uint256"
            },
            {
              "internalType": "uint256",
              "name": "gameId",
              "type": "uint256"
            },
            {
              "internalType": "uint256",
              "name": "betCreated",
              "type": "uint256"
            },
            {
              "internalType": "uint256",
              "name": "betAccepted",
              "type": "uint256"
            },
            {
              "internalType": "address",
              "name": "creator",
              "type": "address"
            },
            {
              "internalType": "address",
              "name": "acceptor",
              "type": "address"
            },
            {
              "internalType": "address",
              "name": "winner",
              "type": "address"
            },
            {
              "internalType": "enum Bets.BetState",
              "name": "state",
              "type": "uint8"
            }
          ],
          "internalType": "struct Bets.Bet",
          "name": "",
          "type": "tuple"
        }
      ],
      "stateMutability": "view",
      "type": "function"
    },
    {
      "inputs": [],
      "name": "getBets",
      "outputs": [
        {
          "components": [
            {
              "internalType": "uint256",
              "name": "betId",
              "type": "uint256"
            },
            {
              "internalType": "uint256",
              "name": "amount",
              "type": "uint256"
            },
            {
              "internalType": "uint256",
              "name": "counter",
              "type": "uint256"
            },
            {
              "internalType": "uint256",
              "name": "teamPickedId",
              "type": "uint256"
            },
            {
              "internalType": "uint256",
              "name": "otherTeamPickedId",
              "type": "uint256"
            },
            {
              "internalType": "uint256",
              "name": "gameId",
              "type": "uint256"
            },
            {
              "internalType": "uint256",
              "name": "betCreated",
              "type": "uint256"
            },
            {
              "internalType": "uint256",
              "name": "betAccepted",
              "type": "uint256"
            },
            {
              "internalType": "address",
              "name": "creator",
              "type": "address"
            },
            {
              "internalType": "address",
              "name": "acceptor",
              "type": "address"
            },
            {
              "internalType": "address",
              "name": "winner",
              "type": "address"
            },
            {
              "internalType": "enum Bets.BetState",
              "name": "state",
              "type": "uint8"
            }
          ],
          "internalType": "struct Bets.Bet[]",
          "name": "",
          "type": "tuple[]"
        }
      ],
      "stateMutability": "view",
      "type": "function"
    },
    {
      "inputs": [
        {
          "internalType": "uint256",
          "name": "_gameId",
          "type": "uint256"
        }
      ],
      "name": "getGameBets",
      "outputs": [
        {
          "internalType": "uint256[]",
          "name": "",
          "type": "uint256[]"
        }
      ],
      "stateMutability": "view",
      "type": "function"
    },
    {
      "inputs": [
        {
          "internalType": "address",
          "name": "_wallet",
          "type": "address"
        }
      ],
      "name": "getWalletBets",
      "outputs": [
        {
          "internalType": "uint256[]",
          "name": "",
          "type": "uint256[]"
        }
      ],
      "stateMutability": "view",
      "type": "function"
    },
    {
      "inputs": [
        {
          "internalType": "address",
          "name": "forwarder",
          "type": "address"
        }
      ],
      "name": "isTrustedForwarder",
      "outputs": [
        {
          "internalType": "bool",
          "name": "",
          "type": "bool"
        }
      ],
      "stateMutability": "view",
      "type": "function"
    },
    {
      "inputs": [],
      "name": "owner",
      "outputs": [
        {
          "internalType": "address",
          "name": "",
          "type": "address"
        }
      ],
      "stateMutability": "view",
      "type": "function"
    },
    {
      "inputs": [],
      "name": "profiles",
      "outputs": [
        {
          "internalType": "contract Profiles",
          "name": "",
          "type": "address"
        }
      ],
      "stateMutability": "view",
      "type": "function"
    },
    {
      "inputs": [],
      "name": "renounceOwnership",
      "outputs": [],
      "stateMutability": "nonpayable",
      "type": "function"
    },
    {
      "inputs": [],
      "name": "totalRev",
      "outputs": [
        {
          "internalType": "uint256",
          "name": "",
          "type": "uint256"
        }
      ],
      "stateMutability": "view",
      "type": "function"
    },
    {
      "inputs": [],
      "name": "totalTokensBet",
      "outputs": [
        {
          "internalType": "uint256",
          "name": "",
          "type": "uint256"
        }
      ],
      "stateMutability": "view",
      "type": "function"
    },
    {
      "inputs": [
        {
          "internalType": "address",
          "name": "newOwner",
          "type": "address"
        }
      ],
      "name": "transferOwnership",
      "outputs": [],
      "stateMutability": "nonpayable",
      "type": "function"
    },
    {
      "inputs": [
        {
          "internalType": "address",
          "name": "",
          "type": "address"
        },
        {
          "internalType": "uint256",
          "name": "",
          "type": "uint256"
        }
      ],
      "name": "walletBets",
      "outputs": [
        {
          "internalType": "uint256",
          "name": "",
          "type": "uint256"
        }
      ],
      "stateMutability": "view",
      "type": "function"
    },
    {
      "inputs": [],
      "name": "withdraw",
      "outputs": [],
      "stateMutability": "nonpayable",
      "type": "function"
    }
  ],
  "bytecode": "0x60c060405260006006556000600755600060085560006009556000600a556000600b553480156200002f57600080fd5b506040516200423738038062004237833981810160405281019062000055919062000354565b73bf175fcc7086b4f9bd59d5eae8ea67b8f940de0d8073ffffffffffffffffffffffffffffffffffffffff1660808173ffffffffffffffffffffffffffffffffffffffff168152505050620000bf620000b36200017e60201b60201c565b6200019a60201b60201c565b82600160006101000a81548173ffffffffffffffffffffffffffffffffffffffff021916908373ffffffffffffffffffffffffffffffffffffffff16021790555081600260006101000a81548173ffffffffffffffffffffffffffffffffffffffff021916908373ffffffffffffffffffffffffffffffffffffffff1602179055508073ffffffffffffffffffffffffffffffffffffffff1660a08173ffffffffffffffffffffffffffffffffffffffff1681525050505050620003b0565b6000620001956200025e60201b620027aa1760201c565b905090565b60008060009054906101000a900473ffffffffffffffffffffffffffffffffffffffff169050816000806101000a81548173ffffffffffffffffffffffffffffffffffffffff021916908373ffffffffffffffffffffffffffffffffffffffff1602179055508173ffffffffffffffffffffffffffffffffffffffff168173ffffffffffffffffffffffffffffffffffffffff167f8be0079c531659141344cd1fd0a4f28419497f9722a3daafe3b4186f6b6457e060405160405180910390a35050565b60006200027133620002a860201b60201c565b156200028757601436033560601c9050620002a4565b6200029c620002e260201b620027dc1760201c565b9050620002a5565b5b90565b600060805173ffffffffffffffffffffffffffffffffffffffff168273ffffffffffffffffffffffffffffffffffffffff16149050919050565b600033905090565b600080fd5b600073ffffffffffffffffffffffffffffffffffffffff82169050919050565b60006200031c82620002ef565b9050919050565b6200032e816200030f565b81146200033a57600080fd5b50565b6000815190506200034e8162000323565b92915050565b60008060006060848603121562000370576200036f620002ea565b5b600062000380868287016200033d565b935050602062000393868287016200033d565b9250506040620003a6868287016200033d565b9150509250925092565b60805160a051613e1462000423600039600081816105eb015281816108800152818161112901528181611223015281816113020152818161146c0152818161154f0152818161183001528181611a6c01528181611ded01528181611ed001526120a6015260006113d30152613e146000f3fe608060405234801561001057600080fd5b50600436106101735760003560e01c8063715018a6116100de57806399d652ac11610097578063b4cdfdf011610071578063b4cdfdf014610435578063c066fbfa14610453578063eb4f0ab114610471578063f2fde38b146104a157610173565b806399d652ac146103cb578063a6afd5fd146103fb578063b2178afc1461041957610173565b8063715018a614610319578063852ba810146103235780638da5cb5b14610341578063922ec8051461035f578063955a015b1461038f5780639590616c146103ad57610173565b8063357401f511610130578063357401f51461026b5780633ccfd60b14610287578063495057cf14610291578063572b6c05146102af5780636c0c27e1146102df5780636edcf7c5146102fb57610173565b806301ff9ce31461017857806304f29ae714610196578063061e494f146101b257806322af00fa146101e2578063230fba481461021d57806328ad30ed1461023b575b600080fd5b6101806104bd565b60405161018d9190612a03565b60405180910390f35b6101b060048036038101906101ab9190612a5e565b6104c3565b005b6101cc60048036038101906101c79190612a9e565b610cc9565b6040516101d99190612c88565b60405180910390f35b6101fc60048036038101906101f79190612a9e565b610e93565b6040516102149c9b9a99989796959493929190612cc2565b60405180910390f35b610225610f70565b6040516102329190612a03565b60405180910390f35b61025560048036038101906102509190612a5e565b610f76565b6040516102629190612a03565b60405180910390f35b61028560048036038101906102809190612a9e565b610fa7565b005b61028f611217565b005b6102996113a9565b6040516102a69190612ddb565b60405180910390f35b6102c960048036038101906102c49190612e22565b6113cf565b6040516102d69190612e6a565b60405180910390f35b6102f960048036038101906102f49190612a9e565b611427565b005b610303611a50565b6040516103109190612a03565b60405180910390f35b610321611a56565b005b61032b611a6a565b6040516103389190612ea6565b60405180910390f35b610349611a8e565b6040516103569190612ec1565b60405180910390f35b61037960048036038101906103749190612e22565b611ab7565b6040516103869190612f8b565b60405180910390f35b610397611b4e565b6040516103a49190612fce565b60405180910390f35b6103b5611b74565b6040516103c29190612a03565b60405180910390f35b6103e560048036038101906103e09190612a9e565b611b7a565b6040516103f29190612f8b565b60405180910390f35b610403611be5565b604051610410919061318f565b60405180910390f35b610433600480360381019061042e91906131b1565b611dd2565b005b61043d6126ea565b60405161044a9190612a03565b60405180910390f35b61045b6126f0565b6040516104689190612a03565b60405180910390f35b61048b60048036038101906104869190613218565b6126f6565b6040516104989190612a03565b60405180910390f35b6104bb60048036038101906104b69190612e22565b612727565b005b60095481565b6104cb6127e4565b6000600383815481106104e1576104e0613258565b5b90600052602060002090600b020190506001600381111561050557610504612b1b565b5b81600a0160149054906101000a900460ff16600381111561052957610528612b1b565b5b14610569576040517f08c379a00000000000000000000000000000000000000000000000000000000081526004016105609061330a565b60405180910390fd5b600281600a0160146101000a81548160ff0219169083600381111561059157610590612b1b565b5b02179055506000670de0b6b3a764000082600201546105b09190613359565b90506000670de0b6b3a764000083600101546105cc9190613359565b9050600082826105dc919061339b565b90508360030154850361087e577f000000000000000000000000000000000000000000000000000000000000000073ffffffffffffffffffffffffffffffffffffffff1663a9059cbb8560080160009054906101000a900473ffffffffffffffffffffffffffffffffffffffff16836040518363ffffffff1660e01b81526004016106689291906133cf565b6020604051808303816000875af1158015610687573d6000803e3d6000fd5b505050506040513d601f19601f820116820180604052508101906106ab9190613424565b50600160009054906101000a900473ffffffffffffffffffffffffffffffffffffffff1673ffffffffffffffffffffffffffffffffffffffff1663f42865698560080160009054906101000a900473ffffffffffffffffffffffffffffffffffffffff16856040518363ffffffff1660e01b815260040161072d9291906133cf565b600060405180830381600087803b15801561074757600080fd5b505af115801561075b573d6000803e3d6000fd5b50505050600160009054906101000a900473ffffffffffffffffffffffffffffffffffffffff1673ffffffffffffffffffffffffffffffffffffffff16630a1cb2728560090160009054906101000a900473ffffffffffffffffffffffffffffffffffffffff16856040518363ffffffff1660e01b81526004016107e09291906133cf565b600060405180830381600087803b1580156107fa57600080fd5b505af115801561080e573d6000803e3d6000fd5b505050508360080160009054906101000a900473ffffffffffffffffffffffffffffffffffffffff1684600a0160006101000a81548173ffffffffffffffffffffffffffffffffffffffff021916908373ffffffffffffffffffffffffffffffffffffffff160217905550610b0f565b7f000000000000000000000000000000000000000000000000000000000000000073ffffffffffffffffffffffffffffffffffffffff1663a9059cbb8560090160009054906101000a900473ffffffffffffffffffffffffffffffffffffffff16836040518363ffffffff1660e01b81526004016108fd9291906133cf565b6020604051808303816000875af115801561091c573d6000803e3d6000fd5b505050506040513d601f19601f820116820180604052508101906109409190613424565b50600160009054906101000a900473ffffffffffffffffffffffffffffffffffffffff1673ffffffffffffffffffffffffffffffffffffffff1663f42865698560090160009054906101000a900473ffffffffffffffffffffffffffffffffffffffff16846040518363ffffffff1660e01b81526004016109c29291906133cf565b600060405180830381600087803b1580156109dc57600080fd5b505af11580156109f0573d6000803e3d6000fd5b50505050600160009054906101000a900473ffffffffffffffffffffffffffffffffffffffff1673ffffffffffffffffffffffffffffffffffffffff16630a1cb2728560080160009054906101000a900473ffffffffffffffffffffffffffffffffffffffff16846040518363ffffffff1660e01b8152600401610a759291906133cf565b600060405180830381600087803b158015610a8f57600080fd5b505af1158015610aa3573d6000803e3d6000fd5b505050508360090160009054906101000a900473ffffffffffffffffffffffffffffffffffffffff1684600a0160006101000a81548173ffffffffffffffffffffffffffffffffffffffff021916908373ffffffffffffffffffffffffffffffffffffffff1602179055505b600160009054906101000a900473ffffffffffffffffffffffffffffffffffffffff1673ffffffffffffffffffffffffffffffffffffffff16632876674f8560080160009054906101000a900473ffffffffffffffffffffffffffffffffffffffff166040518263ffffffff1660e01b8152600401610b8e9190612ec1565b600060405180830381600087803b158015610ba857600080fd5b505af1158015610bbc573d6000803e3d6000fd5b50505050600160009054906101000a900473ffffffffffffffffffffffffffffffffffffffff1673ffffffffffffffffffffffffffffffffffffffff16632876674f8560090160009054906101000a900473ffffffffffffffffffffffffffffffffffffffff166040518263ffffffff1660e01b8152600401610c3f9190612ec1565b600060405180830381600087803b158015610c5957600080fd5b505af1158015610c6d573d6000803e3d6000fd5b5050505060086000815480929190610c8490613451565b9190505550857f83be4a35029cdd16d4a0947d817c0b35316867415898eb8c2fab99ddd2e098b686604051610cb99190612a03565b60405180910390a2505050505050565b610cd1612935565b60038281548110610ce557610ce4613258565b5b90600052602060002090600b02016040518061018001604052908160008201548152602001600182015481526020016002820154815260200160038201548152602001600482015481526020016005820154815260200160068201548152602001600782015481526020016008820160009054906101000a900473ffffffffffffffffffffffffffffffffffffffff1673ffffffffffffffffffffffffffffffffffffffff1673ffffffffffffffffffffffffffffffffffffffff1681526020016009820160009054906101000a900473ffffffffffffffffffffffffffffffffffffffff1673ffffffffffffffffffffffffffffffffffffffff1673ffffffffffffffffffffffffffffffffffffffff168152602001600a820160009054906101000a900473ffffffffffffffffffffffffffffffffffffffff1673ffffffffffffffffffffffffffffffffffffffff1673ffffffffffffffffffffffffffffffffffffffff168152602001600a820160149054906101000a900460ff166003811115610e7657610e75612b1b565b5b6003811115610e8857610e87612b1b565b5b815250509050919050565b60038181548110610ea357600080fd5b90600052602060002090600b02016000915090508060000154908060010154908060020154908060030154908060040154908060050154908060060154908060070154908060080160009054906101000a900473ffffffffffffffffffffffffffffffffffffffff16908060090160009054906101000a900473ffffffffffffffffffffffffffffffffffffffff169080600a0160009054906101000a900473ffffffffffffffffffffffffffffffffffffffff169080600a0160149054906101000a900460ff1690508c565b60075481565b60056020528160005260406000208181548110610f9257600080fd5b90600052602060002001600091509150505481565b600060038281548110610fbd57610fbc613258565b5b90600052602060002090600b020190506000670de0b6b3a76400008260010154610fe79190613359565b90508160080160009054906101000a900473ffffffffffffffffffffffffffffffffffffffff1673ffffffffffffffffffffffffffffffffffffffff1661102c612862565b73ffffffffffffffffffffffffffffffffffffffff1614611082576040517f08c379a00000000000000000000000000000000000000000000000000000000081526004016110799061350b565b60405180910390fd5b6000600381111561109657611095612b1b565b5b82600a0160149054906101000a900460ff1660038111156110ba576110b9612b1b565b5b146110fa576040517f08c379a00000000000000000000000000000000000000000000000000000000081526004016110f190613577565b60405180910390fd5b600382600a0160146101000a81548160ff0219169083600381111561112257611121612b1b565b5b02179055507f000000000000000000000000000000000000000000000000000000000000000073ffffffffffffffffffffffffffffffffffffffff1663a9059cbb61116b612862565b836040518363ffffffff1660e01b81526004016111899291906133cf565b6020604051808303816000875af11580156111a8573d6000803e3d6000fd5b505050506040513d601f19601f820116820180604052508101906111cc9190613424565b50600960008154809291906111e090613451565b9190505550827fe3906e8d1e2167ef706b023e6e83af697db5cd38f233c71bf5021b26b316c3a260405160405180910390a2505050565b61121f6127e4565b60007f000000000000000000000000000000000000000000000000000000000000000073ffffffffffffffffffffffffffffffffffffffff166370a08231306040518263ffffffff1660e01b815260040161127a9190612ec1565b602060405180830381865afa158015611297573d6000803e3d6000fd5b505050506040513d601f19601f820116820180604052508101906112bb91906135ac565b905060008111611300576040517f08c379a00000000000000000000000000000000000000000000000000000000081526004016112f790613625565b60405180910390fd5b7f000000000000000000000000000000000000000000000000000000000000000073ffffffffffffffffffffffffffffffffffffffff1663a9059cbb611344611a8e565b836040518363ffffffff1660e01b81526004016113629291906133cf565b6020604051808303816000875af1158015611381573d6000803e3d6000fd5b505050506040513d601f19601f820116820180604052508101906113a59190613424565b5050565b600160009054906101000a900473ffffffffffffffffffffffffffffffffffffffff1681565b60007f000000000000000000000000000000000000000000000000000000000000000073ffffffffffffffffffffffffffffffffffffffff168273ffffffffffffffffffffffffffffffffffffffff16149050919050565b60006003828154811061143d5761143c613258565b5b90600052602060002090600b020190506000670de0b6b3a764000082600201546114679190613359565b9050807f000000000000000000000000000000000000000000000000000000000000000073ffffffffffffffffffffffffffffffffffffffff166370a082316114ae612862565b6040518263ffffffff1660e01b81526004016114ca9190612ec1565b602060405180830381865afa1580156114e7573d6000803e3d6000fd5b505050506040513d601f19601f8201168201806040525081019061150b91906135ac565b101561154c576040517f08c379a000000000000000000000000000000000000000000000000000000000815260040161154390613691565b60405180910390fd5b807f000000000000000000000000000000000000000000000000000000000000000073ffffffffffffffffffffffffffffffffffffffff1663dd62ed3e611591612862565b306040518363ffffffff1660e01b81526004016115af9291906136b1565b602060405180830381865afa1580156115cc573d6000803e3d6000fd5b505050506040513d601f19601f820116820180604052508101906115f091906135ac565b1015611631576040517f08c379a00000000000000000000000000000000000000000000000000000000081526004016116289061374c565b60405180910390fd5b8160080160009054906101000a900473ffffffffffffffffffffffffffffffffffffffff1673ffffffffffffffffffffffffffffffffffffffff16611674612862565b73ffffffffffffffffffffffffffffffffffffffff16036116ca576040517f08c379a00000000000000000000000000000000000000000000000000000000081526004016116c1906137b8565b60405180910390fd5b600060038111156116de576116dd612b1b565b5b82600a0160149054906101000a900460ff16600381111561170257611701612b1b565b5b14611742576040517f08c379a000000000000000000000000000000000000000000000000000000000815260040161173990613824565b60405180910390fd5b42600260009054906101000a900473ffffffffffffffffffffffffffffffffffffffff1673ffffffffffffffffffffffffffffffffffffffff1663a2f77bcc84600501546040518263ffffffff1660e01b81526004016117a29190612a03565b600060405180830381865afa1580156117bf573d6000803e3d6000fd5b505050506040513d6000823e3d601f19601f820116820180604052508101906117e89190613a6b565b606001511161182c576040517f08c379a000000000000000000000000000000000000000000000000000000000815260040161182390613b00565b60405180910390fd5b60007f000000000000000000000000000000000000000000000000000000000000000073ffffffffffffffffffffffffffffffffffffffff166323b872dd611872612862565b30856040518463ffffffff1660e01b815260040161189293929190613b20565b6020604051808303816000875af11580156118b1573d6000803e3d6000fd5b505050506040513d601f19601f820116820180604052508101906118d59190613424565b905080611917576040517f08c379a000000000000000000000000000000000000000000000000000000000815260040161190e90613ba3565b60405180910390fd5b61191f612862565b8360090160006101000a81548173ffffffffffffffffffffffffffffffffffffffff021916908373ffffffffffffffffffffffffffffffffffffffff160217905550600183600a0160146101000a81548160ff0219169083600381111561198957611988612b1b565b5b021790555042836007018190555081600a60008282546119a9919061339b565b92505081905550600760008154809291906119c390613451565b9190505550837f971b8d88bff3d04bf6a570fd87dd92a7711e4f569b37582a91798876ea0ea1e98460080160009054906101000a900473ffffffffffffffffffffffffffffffffffffffff168560090160009054906101000a900473ffffffffffffffffffffffffffffffffffffffff16604051611a429291906136b1565b60405180910390a250505050565b60065481565b611a5e6127e4565b611a686000612871565b565b7f000000000000000000000000000000000000000000000000000000000000000081565b60008060009054906101000a900473ffffffffffffffffffffffffffffffffffffffff16905090565b6060600460008373ffffffffffffffffffffffffffffffffffffffff1673ffffffffffffffffffffffffffffffffffffffff168152602001908152602001600020805480602002602001604051908101604052809291908181526020018280548015611b4257602002820191906000526020600020905b815481526020019060010190808311611b2e575b50505050509050919050565b600260009054906101000a900473ffffffffffffffffffffffffffffffffffffffff1681565b600b5481565b606060056000838152602001908152602001600020805480602002602001604051908101604052809291908181526020018280548015611bd957602002820191906000526020600020905b815481526020019060010190808311611bc5575b50505050509050919050565b60606003805480602002602001604051908101604052809291908181526020016000905b82821015611dc957838290600052602060002090600b02016040518061018001604052908160008201548152602001600182015481526020016002820154815260200160038201548152602001600482015481526020016005820154815260200160068201548152602001600782015481526020016008820160009054906101000a900473ffffffffffffffffffffffffffffffffffffffff1673ffffffffffffffffffffffffffffffffffffffff1673ffffffffffffffffffffffffffffffffffffffff1681526020016009820160009054906101000a900473ffffffffffffffffffffffffffffffffffffffff1673ffffffffffffffffffffffffffffffffffffffff1673ffffffffffffffffffffffffffffffffffffffff168152602001600a820160009054906101000a900473ffffffffffffffffffffffffffffffffffffffff1673ffffffffffffffffffffffffffffffffffffffff1673ffffffffffffffffffffffffffffffffffffffff168152602001600a820160149054906101000a900460ff166003811115611da457611da3612b1b565b5b6003811115611db657611db5612b1b565b5b8152505081526020019060010190611c09565b50505050905090565b6000670de0b6b3a764000083611de89190613359565b9050807f000000000000000000000000000000000000000000000000000000000000000073ffffffffffffffffffffffffffffffffffffffff166370a08231611e2f612862565b6040518263ffffffff1660e01b8152600401611e4b9190612ec1565b602060405180830381865afa158015611e68573d6000803e3d6000fd5b505050506040513d601f19601f82011682018060405250810190611e8c91906135ac565b1015611ecd576040517f08c379a0000000000000000000000000000000000000000000000000000000008152600401611ec490613c0f565b60405180910390fd5b807f000000000000000000000000000000000000000000000000000000000000000073ffffffffffffffffffffffffffffffffffffffff1663dd62ed3e611f12612862565b306040518363ffffffff1660e01b8152600401611f309291906136b1565b602060405180830381865afa158015611f4d573d6000803e3d6000fd5b505050506040513d601f19601f82011682018060405250810190611f7191906135ac565b1015611fb2576040517f08c379a0000000000000000000000000000000000000000000000000000000008152600401611fa99061374c565b60405180910390fd5b42600260009054906101000a900473ffffffffffffffffffffffffffffffffffffffff1673ffffffffffffffffffffffffffffffffffffffff1663a2f77bcc876040518263ffffffff1660e01b815260040161200e9190612a03565b600060405180830381865afa15801561202b573d6000803e3d6000fd5b505050506040513d6000823e3d601f19601f820116820180604052508101906120549190613a6b565b6060015111612098576040517f08c379a000000000000000000000000000000000000000000000000000000000815260040161208f90613c7b565b60405180910390fd5b6000600380549050905060007f000000000000000000000000000000000000000000000000000000000000000073ffffffffffffffffffffffffffffffffffffffff166323b872dd6120e8612862565b30866040518463ffffffff1660e01b815260040161210893929190613b20565b6020604051808303816000875af1158015612127573d6000803e3d6000fd5b505050506040513d601f19601f8201168201806040525081019061214b9190613424565b90508061218d576040517f08c379a000000000000000000000000000000000000000000000000000000000815260040161218490613ba3565b60405180910390fd5b600060405180610180016040528084815260200187815260200186815260200188815260200188600260009054906101000a900473ffffffffffffffffffffffffffffffffffffffff1673ffffffffffffffffffffffffffffffffffffffff1663a2f77bcc8c6040518263ffffffff1660e01b815260040161220f9190612a03565b600060405180830381865afa15801561222c573d6000803e3d6000fd5b505050506040513d6000823e3d601f19601f820116820180604052508101906122559190613a6b565b602001511461230857600260009054906101000a900473ffffffffffffffffffffffffffffffffffffffff1673ffffffffffffffffffffffffffffffffffffffff1663a2f77bcc8b6040518263ffffffff1660e01b81526004016122b99190612a03565b600060405180830381865afa1580156122d6573d6000803e3d6000fd5b505050506040513d6000823e3d601f19601f820116820180604052508101906122ff9190613a6b565b602001516123ae565b600260009054906101000a900473ffffffffffffffffffffffffffffffffffffffff1673ffffffffffffffffffffffffffffffffffffffff1663a2f77bcc8b6040518263ffffffff1660e01b81526004016123639190612a03565b600060405180830381865afa158015612380573d6000803e3d6000fd5b505050506040513d6000823e3d601f19601f820116820180604052508101906123a99190613a6b565b604001515b8152602001898152602001428152602001600081526020016123ce612862565b73ffffffffffffffffffffffffffffffffffffffff168152602001600073ffffffffffffffffffffffffffffffffffffffff168152602001600073ffffffffffffffffffffffffffffffffffffffff1681526020016000600381111561243757612436612b1b565b5b815250905060038190806001815401808255809150506001900390600052602060002090600b0201600090919091909150600082015181600001556020820151816001015560408201518160020155606082015181600301556080820151816004015560a0820151816005015560c0820151816006015560e082015181600701556101008201518160080160006101000a81548173ffffffffffffffffffffffffffffffffffffffff021916908373ffffffffffffffffffffffffffffffffffffffff1602179055506101208201518160090160006101000a81548173ffffffffffffffffffffffffffffffffffffffff021916908373ffffffffffffffffffffffffffffffffffffffff16021790555061014082015181600a0160006101000a81548173ffffffffffffffffffffffffffffffffffffffff021916908373ffffffffffffffffffffffffffffffffffffffff16021790555061016082015181600a0160146101000a81548160ff021916908360038111156125bc576125bb612b1b565b5b0217905550505083600a60008282546125d5919061339b565b92505081905550600460006125e8612862565b73ffffffffffffffffffffffffffffffffffffffff1673ffffffffffffffffffffffffffffffffffffffff168152602001908152602001600020839080600181540180825580915050600190039060005260206000200160009091909190915055600560008981526020019081526020016000208390806001815401808255809150506001900390600052602060002001600090919091909150556006600081548092919061269690613451565b9190505550827f29f8f229585877f20d27efb1882df0ca806636f4c7c78e8f58cdc61934032cf187878a6126c8612862565b6040516126d89493929190613c9b565b60405180910390a25050505050505050565b60085481565b600a5481565b6004602052816000526040600020818154811061271257600080fd5b90600052602060002001600091509150505481565b61272f6127e4565b600073ffffffffffffffffffffffffffffffffffffffff168173ffffffffffffffffffffffffffffffffffffffff160361279e576040517f08c379a000000000000000000000000000000000000000000000000000000000815260040161279590613d52565b60405180910390fd5b6127a781612871565b50565b60006127b5336113cf565b156127c957601436033560601c90506127d8565b6127d16127dc565b90506127d9565b5b90565b600033905090565b6127ec612862565b73ffffffffffffffffffffffffffffffffffffffff1661280a611a8e565b73ffffffffffffffffffffffffffffffffffffffff1614612860576040517f08c379a000000000000000000000000000000000000000000000000000000000815260040161285790613dbe565b60405180910390fd5b565b600061286c6127aa565b905090565b60008060009054906101000a900473ffffffffffffffffffffffffffffffffffffffff169050816000806101000a81548173ffffffffffffffffffffffffffffffffffffffff021916908373ffffffffffffffffffffffffffffffffffffffff1602179055508173ffffffffffffffffffffffffffffffffffffffff168173ffffffffffffffffffffffffffffffffffffffff167f8be0079c531659141344cd1fd0a4f28419497f9722a3daafe3b4186f6b6457e060405160405180910390a35050565b6040518061018001604052806000815260200160008152602001600081526020016000815260200160008152602001600081526020016000815260200160008152602001600073ffffffffffffffffffffffffffffffffffffffff168152602001600073ffffffffffffffffffffffffffffffffffffffff168152602001600073ffffffffffffffffffffffffffffffffffffffff168152602001600060038111156129e4576129e3612b1b565b5b81525090565b6000819050919050565b6129fd816129ea565b82525050565b6000602082019050612a1860008301846129f4565b92915050565b6000604051905090565b600080fd5b600080fd5b612a3b816129ea565b8114612a4657600080fd5b50565b600081359050612a5881612a32565b92915050565b60008060408385031215612a7557612a74612a28565b5b6000612a8385828601612a49565b9250506020612a9485828601612a49565b9150509250929050565b600060208284031215612ab457612ab3612a28565b5b6000612ac284828501612a49565b91505092915050565b612ad4816129ea565b82525050565b600073ffffffffffffffffffffffffffffffffffffffff82169050919050565b6000612b0582612ada565b9050919050565b612b1581612afa565b82525050565b7f4e487b7100000000000000000000000000000000000000000000000000000000600052602160045260246000fd5b60048110612b5b57612b5a612b1b565b5b50565b6000819050612b6c82612b4a565b919050565b6000612b7c82612b5e565b9050919050565b612b8c81612b71565b82525050565b61018082016000820151612ba96000850182612acb565b506020820151612bbc6020850182612acb565b506040820151612bcf6040850182612acb565b506060820151612be26060850182612acb565b506080820151612bf56080850182612acb565b5060a0820151612c0860a0850182612acb565b5060c0820151612c1b60c0850182612acb565b5060e0820151612c2e60e0850182612acb565b50610100820151612c43610100850182612b0c565b50610120820151612c58610120850182612b0c565b50610140820151612c6d610140850182612b0c565b50610160820151612c82610160850182612b83565b50505050565b600061018082019050612c9e6000830184612b92565b92915050565b612cad81612afa565b82525050565b612cbc81612b71565b82525050565b600061018082019050612cd8600083018f6129f4565b612ce5602083018e6129f4565b612cf2604083018d6129f4565b612cff606083018c6129f4565b612d0c608083018b6129f4565b612d1960a083018a6129f4565b612d2660c08301896129f4565b612d3360e08301886129f4565b612d41610100830187612ca4565b612d4f610120830186612ca4565b612d5d610140830185612ca4565b612d6b610160830184612cb3565b9d9c50505050505050505050505050565b6000819050919050565b6000612da1612d9c612d9784612ada565b612d7c565b612ada565b9050919050565b6000612db382612d86565b9050919050565b6000612dc582612da8565b9050919050565b612dd581612dba565b82525050565b6000602082019050612df06000830184612dcc565b92915050565b612dff81612afa565b8114612e0a57600080fd5b50565b600081359050612e1c81612df6565b92915050565b600060208284031215612e3857612e37612a28565b5b6000612e4684828501612e0d565b91505092915050565b60008115159050919050565b612e6481612e4f565b82525050565b6000602082019050612e7f6000830184612e5b565b92915050565b6000612e9082612da8565b9050919050565b612ea081612e85565b82525050565b6000602082019050612ebb6000830184612e97565b92915050565b6000602082019050612ed66000830184612ca4565b92915050565b600081519050919050565b600082825260208201905092915050565b6000819050602082019050919050565b6000612f148383612acb565b60208301905092915050565b6000602082019050919050565b6000612f3882612edc565b612f428185612ee7565b9350612f4d83612ef8565b8060005b83811015612f7e578151612f658882612f08565b9750612f7083612f20565b925050600181019050612f51565b5085935050505092915050565b60006020820190508181036000830152612fa58184612f2d565b905092915050565b6000612fb882612da8565b9050919050565b612fc881612fad565b82525050565b6000602082019050612fe36000830184612fbf565b92915050565b600081519050919050565b600082825260208201905092915050565b6000819050602082019050919050565b6101808201600082015161302c6000850182612acb565b50602082015161303f6020850182612acb565b5060408201516130526040850182612acb565b5060608201516130656060850182612acb565b5060808201516130786080850182612acb565b5060a082015161308b60a0850182612acb565b5060c082015161309e60c0850182612acb565b5060e08201516130b160e0850182612acb565b506101008201516130c6610100850182612b0c565b506101208201516130db610120850182612b0c565b506101408201516130f0610140850182612b0c565b50610160820151613105610160850182612b83565b50505050565b60006131178383613015565b6101808301905092915050565b6000602082019050919050565b600061313c82612fe9565b6131468185612ff4565b935061315183613005565b8060005b83811015613182578151613169888261310b565b975061317483613124565b925050600181019050613155565b5085935050505092915050565b600060208201905081810360008301526131a98184613131565b905092915050565b600080600080608085870312156131cb576131ca612a28565b5b60006131d987828801612a49565b94505060206131ea87828801612a49565b93505060406131fb87828801612a49565b925050606061320c87828801612a49565b91505092959194509250565b6000806040838503121561322f5761322e612a28565b5b600061323d85828601612e0d565b925050602061324e85828601612a49565b9150509250929050565b7f4e487b7100000000000000000000000000000000000000000000000000000000600052603260045260246000fd5b600082825260208201905092915050565b7f596f752063616e206f6e6c792066696e69736820616e2061636365707465642060008201527f6265740000000000000000000000000000000000000000000000000000000000602082015250565b60006132f4602383613287565b91506132ff82613298565b604082019050919050565b60006020820190508181036000830152613323816132e7565b9050919050565b7f4e487b7100000000000000000000000000000000000000000000000000000000600052601160045260246000fd5b6000613364826129ea565b915061336f836129ea565b925082820261337d816129ea565b915082820484148315176133945761339361332a565b5b5092915050565b60006133a6826129ea565b91506133b1836129ea565b92508282019050808211156133c9576133c861332a565b5b92915050565b60006040820190506133e46000830185612ca4565b6133f160208301846129f4565b9392505050565b61340181612e4f565b811461340c57600080fd5b50565b60008151905061341e816133f8565b92915050565b60006020828403121561343a57613439612a28565b5b60006134488482850161340f565b91505092915050565b600061345c826129ea565b91507fffffffffffffffffffffffffffffffffffffffffffffffffffffffffffffffff820361348e5761348d61332a565b5b600182019050919050565b7f4f6e6c7920746865206265742063726561746f722063616e2063616e63656c2060008201527f7468652062657400000000000000000000000000000000000000000000000000602082015250565b60006134f5602783613287565b915061350082613499565b604082019050919050565b60006020820190508181036000830152613524816134e8565b9050919050565b7f426574206e6f7420617661696c61626c65000000000000000000000000000000600082015250565b6000613561601183613287565b915061356c8261352b565b602082019050919050565b6000602082019050818103600083015261359081613554565b9050919050565b6000815190506135a681612a32565b92915050565b6000602082840312156135c2576135c1612a28565b5b60006135d084828501613597565b91505092915050565b7f436f6e74726163742062616c616e6365206973207a65726f2e00000000000000600082015250565b600061360f601983613287565b915061361a826135d9565b602082019050919050565b6000602082019050818103600083015261363e81613602565b9050919050565b7f4e6f7420656e6f75676820746f6b656e7320746f207570766f74650000000000600082015250565b600061367b601b83613287565b915061368682613645565b602082019050919050565b600060208201905081810360008301526136aa8161366e565b9050919050565b60006040820190506136c66000830185612ca4565b6136d36020830184612ca4565b9392505050565b7f4163636f756e7420646964206e6f7420617070726f766520746f6b656e20747260008201527f616e736665720000000000000000000000000000000000000000000000000000602082015250565b6000613736602683613287565b9150613741826136da565b604082019050919050565b6000602082019050818103600083015261376581613729565b9050919050565b7f43616e6e6f742061636365707420796f7572206f776e20626574000000000000600082015250565b60006137a2601a83613287565b91506137ad8261376c565b602082019050919050565b600060208201905081810360008301526137d181613795565b9050919050565b7f426574206973206e6f206c6f6e67657220617661696c61626c65000000000000600082015250565b600061380e601a83613287565b9150613819826137d8565b602082019050919050565b6000602082019050818103600083015261383d81613801565b9050919050565b600080fd5b6000601f19601f8301169050919050565b7f4e487b7100000000000000000000000000000000000000000000000000000000600052604160045260246000fd5b61389282613849565b810181811067ffffffffffffffff821117156138b1576138b061385a565b5b80604052505050565b60006138c4612a1e565b90506138d08282613889565b919050565b600080fd5b600080fd5b600080fd5b600067ffffffffffffffff8211156138ff576138fe61385a565b5b61390882613849565b9050602081019050919050565b60005b83811015613933578082015181840152602081019050613918565b60008484015250505050565b600061395261394d846138e4565b6138ba565b90508281526020810184848401111561396e5761396d6138df565b5b613979848285613915565b509392505050565b600082601f830112613996576139956138da565b5b81516139a684826020860161393f565b91505092915050565b600060c082840312156139c5576139c4613844565b5b6139cf60c06138ba565b905060006139df84828501613597565b60008301525060206139f384828501613597565b6020830152506040613a0784828501613597565b6040830152506060613a1b84828501613597565b6060830152506080613a2f8482850161340f565b60808301525060a082015167ffffffffffffffff811115613a5357613a526138d5565b5b613a5f84828501613981565b60a08301525092915050565b600060208284031215613a8157613a80612a28565b5b600082015167ffffffffffffffff811115613a9f57613a9e612a2d565b5b613aab848285016139af565b91505092915050565b7f42657474696e6720706572696f642068617320656e6465640000000000000000600082015250565b6000613aea601883613287565b9150613af582613ab4565b602082019050919050565b60006020820190508181036000830152613b1981613add565b9050919050565b6000606082019050613b356000830186612ca4565b613b426020830185612ca4565b613b4f60408301846129f4565b949350505050565b7f546f6b656e207472616e73666572206661696c65642100000000000000000000600082015250565b6000613b8d601683613287565b9150613b9882613b57565b602082019050919050565b60006020820190508181036000830152613bbc81613b80565b9050919050565b7f4e6f7420656e6f75676820746f6b656e7320746f206265740000000000000000600082015250565b6000613bf9601883613287565b9150613c0482613bc3565b602082019050919050565b60006020820190508181036000830152613c2881613bec565b9050919050565b7f47616d652068617320616c726561647920737461727465640000000000000000600082015250565b6000613c65601883613287565b9150613c7082613c2f565b602082019050919050565b60006020820190508181036000830152613c9481613c58565b9050919050565b6000608082019050613cb060008301876129f4565b613cbd60208301866129f4565b613cca60408301856129f4565b613cd76060830184612ca4565b95945050505050565b7f4f776e61626c653a206e6577206f776e657220697320746865207a65726f206160008201527f6464726573730000000000000000000000000000000000000000000000000000602082015250565b6000613d3c602683613287565b9150613d4782613ce0565b604082019050919050565b60006020820190508181036000830152613d6b81613d2f565b9050919050565b7f4f776e61626c653a2063616c6c6572206973206e6f7420746865206f776e6572600082015250565b6000613da8602083613287565b9150613db382613d72565b602082019050919050565b60006020820190508181036000830152613dd781613d9b565b905091905056fea2646970667358221220b8316e22c49a1bed75d4a59d2348fdd6454f3f08f27519288969d1dc90395c9064736f6c63430008110033",
  "linkReferences": {},
  "deployedLinkReferences": {}
}