{
  "_format": "hh-sol-artifact-1",
  "contractName": "Referrals",
  "sourceName": "contracts/Referrals.sol",
  "abi": [
    {
      "inputs": [
        {
          "internalType": "address",
          "name": "_tokenAddress",
          "type": "address"
        }
      ],
      "stateMutability": "nonpayable",
      "type": "constructor"
    },
    {
      "anonymous": false,
      "inputs": [
        {
          "indexed": true,
          "internalType": "uint256",
          "name": "id",
          "type": "uint256"
        },
        {
          "indexed": false,
          "internalType": "string",
          "name": "username",
          "type": "string"
        },
        {
          "indexed": false,
          "internalType": "address",
          "name": "walletAddress",
          "type": "address"
        }
      ],
      "name": "LinkCreated",
      "type": "event"
    },
    {
      "anonymous": false,
      "inputs": [
        {
          "indexed": true,
          "internalType": "uint256",
          "name": "id",
          "type": "uint256"
        },
        {
          "indexed": false,
          "internalType": "address",
          "name": "walletAddress",
          "type": "address"
        },
        {
          "indexed": false,
          "internalType": "address",
          "name": "referrer",
          "type": "address"
        }
      ],
      "name": "ReferralCreated",
      "type": "event"
    },
    {
      "inputs": [],
      "name": "Mojo",
      "outputs": [
        {
          "internalType": "contract IERC20",
          "name": "",
          "type": "address"
        }
      ],
      "stateMutability": "view",
      "type": "function"
    },
    {
      "inputs": [
        {
          "internalType": "string",
          "name": "",
          "type": "string"
        }
      ],
      "name": "codeToLinkId",
      "outputs": [
        {
          "internalType": "uint256",
          "name": "",
          "type": "uint256"
        }
      ],
      "stateMutability": "view",
      "type": "function"
    },
    {
      "inputs": [
        {
          "internalType": "string",
          "name": "_code",
          "type": "string"
        }
      ],
      "name": "createLink",
      "outputs": [],
      "stateMutability": "nonpayable",
      "type": "function"
    },
    {
      "inputs": [
        {
          "internalType": "string",
          "name": "_code",
          "type": "string"
        }
      ],
      "name": "createReferral",
      "outputs": [],
      "stateMutability": "nonpayable",
      "type": "function"
    },
    {
      "inputs": [
        {
          "internalType": "address",
          "name": "_wallet",
          "type": "address"
        }
      ],
      "name": "getHasAccess",
      "outputs": [
        {
          "internalType": "bool",
          "name": "",
          "type": "bool"
        }
      ],
      "stateMutability": "view",
      "type": "function"
    },
    {
      "inputs": [
        {
          "internalType": "uint256",
          "name": "_id",
          "type": "uint256"
        }
      ],
      "name": "getLink",
      "outputs": [
        {
          "components": [
            {
              "internalType": "uint256",
              "name": "id",
              "type": "uint256"
            },
            {
              "internalType": "uint256",
              "name": "timestamp",
              "type": "uint256"
            },
            {
              "internalType": "string",
              "name": "code",
              "type": "string"
            },
            {
              "internalType": "address",
              "name": "walletAddress",
              "type": "address"
            }
          ],
          "internalType": "struct Referrals.Link",
          "name": "",
          "type": "tuple"
        }
      ],
      "stateMutability": "view",
      "type": "function"
    },
    {
      "inputs": [
        {
          "internalType": "address",
          "name": "_wallet",
          "type": "address"
        }
      ],
      "name": "getMyLink",
      "outputs": [
        {
          "components": [
            {
              "internalType": "uint256",
              "name": "id",
              "type": "uint256"
            },
            {
              "internalType": "uint256",
              "name": "timestamp",
              "type": "uint256"
            },
            {
              "internalType": "string",
              "name": "code",
              "type": "string"
            },
            {
              "internalType": "address",
              "name": "walletAddress",
              "type": "address"
            }
          ],
          "internalType": "struct Referrals.Link",
          "name": "",
          "type": "tuple"
        }
      ],
      "stateMutability": "view",
      "type": "function"
    },
    {
      "inputs": [
        {
          "internalType": "address",
          "name": "_wallet",
          "type": "address"
        }
      ],
      "name": "getMyReferrals",
      "outputs": [
        {
          "internalType": "uint256[]",
          "name": "",
          "type": "uint256[]"
        }
      ],
      "stateMutability": "view",
      "type": "function"
    },
    {
      "inputs": [
        {
          "internalType": "uint256",
          "name": "_id",
          "type": "uint256"
        }
      ],
      "name": "getReferral",
      "outputs": [
        {
          "components": [
            {
              "internalType": "uint256",
              "name": "id",
              "type": "uint256"
            },
            {
              "internalType": "uint256",
              "name": "timestamp",
              "type": "uint256"
            },
            {
              "internalType": "address",
              "name": "walletAddress",
              "type": "address"
            },
            {
              "internalType": "address",
              "name": "referrer",
              "type": "address"
            }
          ],
          "internalType": "struct Referrals.Referral",
          "name": "",
          "type": "tuple"
        }
      ],
      "stateMutability": "view",
      "type": "function"
    },
    {
      "inputs": [
        {
          "internalType": "address",
          "name": "_wallet",
          "type": "address"
        }
      ],
      "name": "getReferralCount",
      "outputs": [
        {
          "internalType": "uint256",
          "name": "",
          "type": "uint256"
        }
      ],
      "stateMutability": "view",
      "type": "function"
    },
    {
      "inputs": [
        {
          "internalType": "address",
          "name": "",
          "type": "address"
        }
      ],
      "name": "hasAccess",
      "outputs": [
        {
          "internalType": "bool",
          "name": "",
          "type": "bool"
        }
      ],
      "stateMutability": "view",
      "type": "function"
    },
    {
      "inputs": [
        {
          "internalType": "address",
          "name": "",
          "type": "address"
        }
      ],
      "name": "hasClaimed",
      "outputs": [
        {
          "internalType": "bool",
          "name": "",
          "type": "bool"
        }
      ],
      "stateMutability": "view",
      "type": "function"
    },
    {
      "inputs": [
        {
          "internalType": "string",
          "name": "_username",
          "type": "string"
        }
      ],
      "name": "hasCode",
      "outputs": [
        {
          "internalType": "bool",
          "name": "",
          "type": "bool"
        }
      ],
      "stateMutability": "view",
      "type": "function"
    },
    {
      "inputs": [
        {
          "internalType": "address",
          "name": "_wallet",
          "type": "address"
        }
      ],
      "name": "hasLink",
      "outputs": [
        {
          "internalType": "bool",
          "name": "",
          "type": "bool"
        }
      ],
      "stateMutability": "view",
      "type": "function"
    },
    {
      "inputs": [
        {
          "internalType": "address",
          "name": "forwarder",
          "type": "address"
        }
      ],
      "name": "isTrustedForwarder",
      "outputs": [
        {
          "internalType": "bool",
          "name": "",
          "type": "bool"
        }
      ],
      "stateMutability": "view",
      "type": "function"
    },
    {
      "inputs": [
        {
          "internalType": "uint256",
          "name": "",
          "type": "uint256"
        },
        {
          "internalType": "uint256",
          "name": "",
          "type": "uint256"
        }
      ],
      "name": "linkReferrals",
      "outputs": [
        {
          "internalType": "uint256",
          "name": "",
          "type": "uint256"
        }
      ],
      "stateMutability": "view",
      "type": "function"
    },
    {
      "inputs": [
        {
          "internalType": "uint256",
          "name": "",
          "type": "uint256"
        }
      ],
      "name": "links",
      "outputs": [
        {
          "internalType": "uint256",
          "name": "id",
          "type": "uint256"
        },
        {
          "internalType": "uint256",
          "name": "timestamp",
          "type": "uint256"
        },
        {
          "internalType": "string",
          "name": "code",
          "type": "string"
        },
        {
          "internalType": "address",
          "name": "walletAddress",
          "type": "address"
        }
      ],
      "stateMutability": "view",
      "type": "function"
    },
    {
      "inputs": [
        {
          "internalType": "address",
          "name": "",
          "type": "address"
        },
        {
          "internalType": "uint256",
          "name": "",
          "type": "uint256"
        }
      ],
      "name": "myReferrals",
      "outputs": [
        {
          "internalType": "uint256",
          "name": "",
          "type": "uint256"
        }
      ],
      "stateMutability": "view",
      "type": "function"
    },
    {
      "inputs": [
        {
          "internalType": "address",
          "name": "",
          "type": "address"
        }
      ],
      "name": "referralCount",
      "outputs": [
        {
          "internalType": "uint256",
          "name": "",
          "type": "uint256"
        }
      ],
      "stateMutability": "view",
      "type": "function"
    },
    {
      "inputs": [
        {
          "internalType": "uint256",
          "name": "",
          "type": "uint256"
        }
      ],
      "name": "referrals",
      "outputs": [
        {
          "internalType": "uint256",
          "name": "id",
          "type": "uint256"
        },
        {
          "internalType": "uint256",
          "name": "timestamp",
          "type": "uint256"
        },
        {
          "internalType": "address",
          "name": "walletAddress",
          "type": "address"
        },
        {
          "internalType": "address",
          "name": "referrer",
          "type": "address"
        }
      ],
      "stateMutability": "view",
      "type": "function"
    },
    {
      "inputs": [
        {
          "internalType": "address",
          "name": "",
          "type": "address"
        }
      ],
      "name": "walletToLinkId",
      "outputs": [
        {
          "internalType": "uint256",
          "name": "",
          "type": "uint256"
        }
      ],
      "stateMutability": "view",
      "type": "function"
    }
  ],
  "bytecode": "0x60c06040523480156200001157600080fd5b50604051620024da380380620024da833981810160405281019062000037919062000126565b73bf175fcc7086b4f9bd59d5eae8ea67b8f940de0d8073ffffffffffffffffffffffffffffffffffffffff1660808173ffffffffffffffffffffffffffffffffffffffff1681525050508073ffffffffffffffffffffffffffffffffffffffff1660a08173ffffffffffffffffffffffffffffffffffffffff16815250505062000158565b600080fd5b600073ffffffffffffffffffffffffffffffffffffffff82169050919050565b6000620000ee82620000c1565b9050919050565b6200010081620000e1565b81146200010c57600080fd5b50565b6000815190506200012081620000f5565b92915050565b6000602082840312156200013f576200013e620000bc565b5b60006200014f848285016200010f565b91505092915050565b60805160a05161235c6200017e60003960006109da015260006106b2015261235c6000f3fe608060405234801561001057600080fd5b50600436106101375760003560e01c80638330d0d8116100b857806395a078e81161007c57806395a078e8146103ec57806395d5d8551461041c5780639d1efb5e14610438578063bb9da6f814610468578063d557a28914610498578063db74559b146104c857610137565b80638330d0d81461031f578063852ba8101461034f578063881d8a401461036d57806388f86793146103a057806395113066146103d057610137565b80635e79eae0116100ff5780635e79eae01461022c578063642c13011461025c57806370d64f5d1461028c57806373b2e80e146102bc57806380b7c92b146102ec57610137565b806324acbd691461013c578063393b6df31461016c578063444afaeb1461019c578063572b6c05146101cc5780635cea24f6146101fc575b600080fd5b6101566004803603810190610151919061161f565b6104f8565b6040516101639190611665565b60405180910390f35b610186600480360381019061018191906116ac565b610541565b60405161019391906117ea565b60405180910390f35b6101b660048036038101906101b19190611941565b610679565b6040516101c391906119a5565b60405180910390f35b6101e660048036038101906101e1919061161f565b6106ae565b6040516101f391906119a5565b60405180910390f35b610216600480360381019061021191906119c0565b610706565b6040516102239190611665565b60405180910390f35b6102466004803603810190610241919061161f565b610737565b6040516102539190611aaf565b60405180910390f35b6102766004803603810190610271919061161f565b6107ce565b60405161028391906119a5565b60405180910390f35b6102a660048036038101906102a1919061161f565b610824565b6040516102b39190611665565b60405180910390f35b6102d660048036038101906102d1919061161f565b61083c565b6040516102e391906119a5565b60405180910390f35b610306600480360381019061030191906116ac565b61085c565b6040516103169493929190611ae0565b60405180910390f35b610339600480360381019061033491906116ac565b6108dc565b6040516103469190611b7a565b60405180910390f35b6103576109d8565b6040516103649190611bf4565b60405180910390f35b610387600480360381019061038291906116ac565b6109fc565b6040516103979493929190611c59565b60405180910390f35b6103ba60048036038101906103b59190611941565b610ae4565b6040516103c79190611665565b60405180910390f35b6103ea60048036038101906103e59190611941565b610b12565b005b6104066004803603810190610401919061161f565b610e46565b60405161041391906119a5565b60405180910390f35b61043660048036038101906104319190611d05565b610e66565b005b610452600480360381019061044d919061161f565b6112cb565b60405161045f91906117ea565b60405180910390f35b610482600480360381019061047d919061161f565b611442565b60405161048f91906119a5565b60405180910390f35b6104b260048036038101906104ad9190611d52565b611498565b6040516104bf9190611665565b60405180910390f35b6104e260048036038101906104dd919061161f565b6114c9565b6040516104ef9190611665565b60405180910390f35b6000600760008373ffffffffffffffffffffffffffffffffffffffff1673ffffffffffffffffffffffffffffffffffffffff168152602001908152602001600020549050919050565b61054961151b565b6000828154811061055d5761055c611d92565b5b9060005260206000209060040201604051806080016040529081600082015481526020016001820154815260200160028201805461059a90611df0565b80601f01602080910402602001604051908101604052809291908181526020018280546105c690611df0565b80156106135780601f106105e857610100808354040283529160200191610613565b820191906000526020600020905b8154815290600101906020018083116105f657829003601f168201915b505050505081526020016003820160009054906101000a900473ffffffffffffffffffffffffffffffffffffffff1673ffffffffffffffffffffffffffffffffffffffff1673ffffffffffffffffffffffffffffffffffffffff16815250509050919050565b600060038260405161068b9190611e5d565b908152602001604051809103902060009054906101000a900460ff169050919050565b60007f000000000000000000000000000000000000000000000000000000000000000073ffffffffffffffffffffffffffffffffffffffff168273ffffffffffffffffffffffffffffffffffffffff16149050919050565b6004602052816000526040600020818154811061072257600080fd5b90600052602060002001600091509150505481565b6060600460008373ffffffffffffffffffffffffffffffffffffffff1673ffffffffffffffffffffffffffffffffffffffff1681526020019081526020016000208054806020026020016040519081016040528092919081815260200182805480156107c257602002820191906000526020600020905b8154815260200190600101908083116107ae575b50505050509050919050565b6000600260008373ffffffffffffffffffffffffffffffffffffffff1673ffffffffffffffffffffffffffffffffffffffff16815260200190815260200160002060009054906101000a900460ff169050919050565b60096020528060005260406000206000915090505481565b60066020528060005260406000206000915054906101000a900460ff1681565b6001818154811061086c57600080fd5b90600052602060002090600402016000915090508060000154908060010154908060020160009054906101000a900473ffffffffffffffffffffffffffffffffffffffff16908060030160009054906101000a900473ffffffffffffffffffffffffffffffffffffffff16905084565b6108e4611559565b600182815481106108f8576108f7611d92565b5b906000526020600020906004020160405180608001604052908160008201548152602001600182015481526020016002820160009054906101000a900473ffffffffffffffffffffffffffffffffffffffff1673ffffffffffffffffffffffffffffffffffffffff1673ffffffffffffffffffffffffffffffffffffffff1681526020016003820160009054906101000a900473ffffffffffffffffffffffffffffffffffffffff1673ffffffffffffffffffffffffffffffffffffffff1673ffffffffffffffffffffffffffffffffffffffff16815250509050919050565b7f000000000000000000000000000000000000000000000000000000000000000081565b60008181548110610a0c57600080fd5b9060005260206000209060040201600091509050806000015490806001015490806002018054610a3b90611df0565b80601f0160208091040260200160405190810160405280929190818152602001828054610a6790611df0565b8015610ab45780601f10610a8957610100808354040283529160200191610ab4565b820191906000526020600020905b815481529060010190602001808311610a9757829003601f168201915b5050505050908060030160009054906101000a900473ffffffffffffffffffffffffffffffffffffffff16905084565b6005818051602081018201805184825260208301602085012081835280955050505050506000915090505481565b600381604051610b229190611e5d565b908152602001604051809103902060009054906101000a900460ff1615610b7e576040517f08c379a0000000000000000000000000000000000000000000000000000000008152600401610b7590611ec0565b60405180910390fd5b60026000610b8a6114e1565b73ffffffffffffffffffffffffffffffffffffffff1673ffffffffffffffffffffffffffffffffffffffff16815260200190815260200160002060009054906101000a900460ff1615610c12576040517f08c379a0000000000000000000000000000000000000000000000000000000008152600401610c0990611f2c565b60405180910390fd5b60008080549050905060006040518060800160405280838152602001428152602001848152602001610c426114e1565b73ffffffffffffffffffffffffffffffffffffffff168152509050600081908060018154018082558091505060019003906000526020600020906004020160009091909190915060008201518160000155602082015181600101556040820151816002019081610cb291906120ee565b5060608201518160030160006101000a81548173ffffffffffffffffffffffffffffffffffffffff021916908373ffffffffffffffffffffffffffffffffffffffff16021790555050506001600384604051610d0e9190611e5d565b908152602001604051809103902060006101000a81548160ff021916908315150217905550600160026000610d416114e1565b73ffffffffffffffffffffffffffffffffffffffff1673ffffffffffffffffffffffffffffffffffffffff16815260200190815260200160002060006101000a81548160ff02191690831515021790555081600584604051610da39190611e5d565b9081526020016040518091039020819055508160096000610dc26114e1565b73ffffffffffffffffffffffffffffffffffffffff1673ffffffffffffffffffffffffffffffffffffffff16815260200190815260200160002081905550817f67c14cd9e3068662e943daae895ef29f692b698884106fdc5c57935a0ca748c484610e2b6114e1565b604051610e399291906121c0565b60405180910390a2505050565b600a6020528060005260406000206000915054906101000a900460ff1681565b60038282604051610e78929190612215565b908152602001604051809103902060009054906101000a900460ff16610ed3576040517f08c379a0000000000000000000000000000000000000000000000000000000008152600401610eca9061227a565b60405180910390fd5b60006001805490509050600060058484604051610ef1929190612215565b90815260200160405180910390205490506000808281548110610f1757610f16611d92565b5b90600052602060002090600402016040518060800160405290816000820154815260200160018201548152602001600282018054610f5490611df0565b80601f0160208091040260200160405190810160405280929190818152602001828054610f8090611df0565b8015610fcd5780601f10610fa257610100808354040283529160200191610fcd565b820191906000526020600020905b815481529060010190602001808311610fb057829003601f168201915b505050505081526020016003820160009054906101000a900473ffffffffffffffffffffffffffffffffffffffff1673ffffffffffffffffffffffffffffffffffffffff1673ffffffffffffffffffffffffffffffffffffffff168152505090506000604051806080016040528085815260200142815260200161104f6114e1565b73ffffffffffffffffffffffffffffffffffffffff168152602001836060015173ffffffffffffffffffffffffffffffffffffffff1681525090506001819080600181540180825580915050600190039060005260206000209060040201600090919091909150600082015181600001556020820151816001015560408201518160020160006101000a81548173ffffffffffffffffffffffffffffffffffffffff021916908373ffffffffffffffffffffffffffffffffffffffff16021790555060608201518160030160006101000a81548173ffffffffffffffffffffffffffffffffffffffff021916908373ffffffffffffffffffffffffffffffffffffffff160217905550505060046000836060015173ffffffffffffffffffffffffffffffffffffffff1673ffffffffffffffffffffffffffffffffffffffff168152602001908152602001600020849080600181540180825580915050600190039060005260206000200160009091909190915055600160076000846060015173ffffffffffffffffffffffffffffffffffffffff1673ffffffffffffffffffffffffffffffffffffffff168152602001908152602001600020600082825461121891906122c9565b925050819055506001600a600061122d6114e1565b73ffffffffffffffffffffffffffffffffffffffff1673ffffffffffffffffffffffffffffffffffffffff16815260200190815260200160002060006101000a81548160ff021916908315150217905550837fbe59c31a2ad9a70b6bc8ae81d809b53f18c28b97bc3cc4f4e0fb74e47d3ef1936112a86114e1565b84606001516040516112bb9291906122fd565b60405180910390a2505050505050565b6112d361151b565b6000600960008473ffffffffffffffffffffffffffffffffffffffff1673ffffffffffffffffffffffffffffffffffffffff168152602001908152602001600020548154811061132657611325611d92565b5b9060005260206000209060040201604051806080016040529081600082015481526020016001820154815260200160028201805461136390611df0565b80601f016020809104026020016040519081016040528092919081815260200182805461138f90611df0565b80156113dc5780601f106113b1576101008083540402835291602001916113dc565b820191906000526020600020905b8154815290600101906020018083116113bf57829003601f168201915b505050505081526020016003820160009054906101000a900473ffffffffffffffffffffffffffffffffffffffff1673ffffffffffffffffffffffffffffffffffffffff1673ffffffffffffffffffffffffffffffffffffffff16815250509050919050565b6000600a60008373ffffffffffffffffffffffffffffffffffffffff1673ffffffffffffffffffffffffffffffffffffffff16815260200190815260200160002060009054906101000a900460ff169050919050565b600860205281600052604060002081815481106114b457600080fd5b90600052602060002001600091509150505481565b60076020528060005260406000206000915090505481565b60006114ec336106ae565b1561150057601436033560601c905061150f565b611508611513565b9050611510565b5b90565b600033905090565b6040518060800160405280600081526020016000815260200160608152602001600073ffffffffffffffffffffffffffffffffffffffff1681525090565b60405180608001604052806000815260200160008152602001600073ffffffffffffffffffffffffffffffffffffffff168152602001600073ffffffffffffffffffffffffffffffffffffffff1681525090565b6000604051905090565b600080fd5b600080fd5b600073ffffffffffffffffffffffffffffffffffffffff82169050919050565b60006115ec826115c1565b9050919050565b6115fc816115e1565b811461160757600080fd5b50565b600081359050611619816115f3565b92915050565b600060208284031215611635576116346115b7565b5b60006116438482850161160a565b91505092915050565b6000819050919050565b61165f8161164c565b82525050565b600060208201905061167a6000830184611656565b92915050565b6116898161164c565b811461169457600080fd5b50565b6000813590506116a681611680565b92915050565b6000602082840312156116c2576116c16115b7565b5b60006116d084828501611697565b91505092915050565b6116e28161164c565b82525050565b600081519050919050565b600082825260208201905092915050565b60005b83811015611722578082015181840152602081019050611707565b60008484015250505050565b6000601f19601f8301169050919050565b600061174a826116e8565b61175481856116f3565b9350611764818560208601611704565b61176d8161172e565b840191505092915050565b611781816115e1565b82525050565b600060808301600083015161179f60008601826116d9565b5060208301516117b260208601826116d9565b50604083015184820360408601526117ca828261173f565b91505060608301516117df6060860182611778565b508091505092915050565b600060208201905081810360008301526118048184611787565b905092915050565b600080fd5b600080fd5b7f4e487b7100000000000000000000000000000000000000000000000000000000600052604160045260246000fd5b61184e8261172e565b810181811067ffffffffffffffff8211171561186d5761186c611816565b5b80604052505050565b60006118806115ad565b905061188c8282611845565b919050565b600067ffffffffffffffff8211156118ac576118ab611816565b5b6118b58261172e565b9050602081019050919050565b82818337600083830152505050565b60006118e46118df84611891565b611876565b905082815260208101848484011115611900576118ff611811565b5b61190b8482856118c2565b509392505050565b600082601f8301126119285761192761180c565b5b81356119388482602086016118d1565b91505092915050565b600060208284031215611957576119566115b7565b5b600082013567ffffffffffffffff811115611975576119746115bc565b5b61198184828501611913565b91505092915050565b60008115159050919050565b61199f8161198a565b82525050565b60006020820190506119ba6000830184611996565b92915050565b600080604083850312156119d7576119d66115b7565b5b60006119e58582860161160a565b92505060206119f685828601611697565b9150509250929050565b600081519050919050565b600082825260208201905092915050565b6000819050602082019050919050565b6000611a3883836116d9565b60208301905092915050565b6000602082019050919050565b6000611a5c82611a00565b611a668185611a0b565b9350611a7183611a1c565b8060005b83811015611aa2578151611a898882611a2c565b9750611a9483611a44565b925050600181019050611a75565b5085935050505092915050565b60006020820190508181036000830152611ac98184611a51565b905092915050565b611ada816115e1565b82525050565b6000608082019050611af56000830187611656565b611b026020830186611656565b611b0f6040830185611ad1565b611b1c6060830184611ad1565b95945050505050565b608082016000820151611b3b60008501826116d9565b506020820151611b4e60208501826116d9565b506040820151611b616040850182611778565b506060820151611b746060850182611778565b50505050565b6000608082019050611b8f6000830184611b25565b92915050565b6000819050919050565b6000611bba611bb5611bb0846115c1565b611b95565b6115c1565b9050919050565b6000611bcc82611b9f565b9050919050565b6000611bde82611bc1565b9050919050565b611bee81611bd3565b82525050565b6000602082019050611c096000830184611be5565b92915050565b600082825260208201905092915050565b6000611c2b826116e8565b611c358185611c0f565b9350611c45818560208601611704565b611c4e8161172e565b840191505092915050565b6000608082019050611c6e6000830187611656565b611c7b6020830186611656565b8181036040830152611c8d8185611c20565b9050611c9c6060830184611ad1565b95945050505050565b600080fd5b600080fd5b60008083601f840112611cc557611cc461180c565b5b8235905067ffffffffffffffff811115611ce257611ce1611ca5565b5b602083019150836001820283011115611cfe57611cfd611caa565b5b9250929050565b60008060208385031215611d1c57611d1b6115b7565b5b600083013567ffffffffffffffff811115611d3a57611d396115bc565b5b611d4685828601611caf565b92509250509250929050565b60008060408385031215611d6957611d686115b7565b5b6000611d7785828601611697565b9250506020611d8885828601611697565b9150509250929050565b7f4e487b7100000000000000000000000000000000000000000000000000000000600052603260045260246000fd5b7f4e487b7100000000000000000000000000000000000000000000000000000000600052602260045260246000fd5b60006002820490506001821680611e0857607f821691505b602082108103611e1b57611e1a611dc1565b5b50919050565b600081905092915050565b6000611e37826116e8565b611e418185611e21565b9350611e51818560208601611704565b80840191505092915050565b6000611e698284611e2c565b915081905092915050565b7f436f646520616c72656164792074616b656e0000000000000000000000000000600082015250565b6000611eaa601283611c0f565b9150611eb582611e74565b602082019050919050565b60006020820190508181036000830152611ed981611e9d565b9050919050565b7f596f7520616c726561647920686176652061206d6f6a6f206c696e6b00000000600082015250565b6000611f16601c83611c0f565b9150611f2182611ee0565b602082019050919050565b60006020820190508181036000830152611f4581611f09565b9050919050565b60008190508160005260206000209050919050565b60006020601f8301049050919050565b600082821b905092915050565b600060088302611fae7fffffffffffffffffffffffffffffffffffffffffffffffffffffffffffffffff82611f71565b611fb88683611f71565b95508019841693508086168417925050509392505050565b6000611feb611fe6611fe18461164c565b611b95565b61164c565b9050919050565b6000819050919050565b61200583611fd0565b61201961201182611ff2565b848454611f7e565b825550505050565b600090565b61202e612021565b612039818484611ffc565b505050565b5b8181101561205d57612052600082612026565b60018101905061203f565b5050565b601f8211156120a25761207381611f4c565b61207c84611f61565b8101602085101561208b578190505b61209f61209785611f61565b83018261203e565b50505b505050565b600082821c905092915050565b60006120c5600019846008026120a7565b1980831691505092915050565b60006120de83836120b4565b9150826002028217905092915050565b6120f7826116e8565b67ffffffffffffffff8111156121105761210f611816565b5b61211a8254611df0565b612125828285612061565b600060209050601f8311600181146121585760008415612146578287015190505b61215085826120d2565b8655506121b8565b601f19841661216686611f4c565b60005b8281101561218e57848901518255600182019150602085019450602081019050612169565b868310156121ab57848901516121a7601f8916826120b4565b8355505b6001600288020188555050505b505050505050565b600060408201905081810360008301526121da8185611c20565b90506121e96020830184611ad1565b9392505050565b60006121fc8385611e21565b93506122098385846118c2565b82840190509392505050565b60006122228284866121f0565b91508190509392505050565b7f5468617420636f646520646f6573206e6f742065786973742e00000000000000600082015250565b6000612264601983611c0f565b915061226f8261222e565b602082019050919050565b6000602082019050818103600083015261229381612257565b9050919050565b7f4e487b7100000000000000000000000000000000000000000000000000000000600052601160045260246000fd5b60006122d48261164c565b91506122df8361164c565b92508282019050808211156122f7576122f661229a565b5b92915050565b60006040820190506123126000830185611ad1565b61231f6020830184611ad1565b939250505056fea2646970667358221220923ae791f31cac85901144b38f7364ab5954249c1b3bcfe93667663bd2c9cdd664736f6c63430008110033",
  "linkReferences": {},
  "deployedLinkReferences": {}
}