{
  "_format": "hh-sol-artifact-1",
  "contractName": "Referrals",
  "sourceName": "contracts/Referrals.sol",
  "abi": [
    {
      "inputs": [
        {
          "internalType": "address",
          "name": "_tokenAddress",
          "type": "address"
        }
      ],
      "stateMutability": "nonpayable",
      "type": "constructor"
    },
    {
      "anonymous": false,
      "inputs": [
        {
          "indexed": true,
          "internalType": "uint256",
          "name": "id",
          "type": "uint256"
        },
        {
          "indexed": false,
          "internalType": "string",
          "name": "username",
          "type": "string"
        },
        {
          "indexed": false,
          "internalType": "address",
          "name": "walletAddress",
          "type": "address"
        }
      ],
      "name": "LinkCreated",
      "type": "event"
    },
    {
      "anonymous": false,
      "inputs": [
        {
          "indexed": true,
          "internalType": "uint256",
          "name": "id",
          "type": "uint256"
        },
        {
          "indexed": false,
          "internalType": "address",
          "name": "walletAddress",
          "type": "address"
        },
        {
          "indexed": false,
          "internalType": "address",
          "name": "referrer",
          "type": "address"
        }
      ],
      "name": "ReferralCreated",
      "type": "event"
    },
    {
      "inputs": [],
      "name": "Mojo",
      "outputs": [
        {
          "internalType": "contract IERC20",
          "name": "",
          "type": "address"
        }
      ],
      "stateMutability": "view",
      "type": "function"
    },
    {
      "inputs": [
        {
          "internalType": "string",
          "name": "",
          "type": "string"
        }
      ],
      "name": "codeToLinkId",
      "outputs": [
        {
          "internalType": "uint256",
          "name": "",
          "type": "uint256"
        }
      ],
      "stateMutability": "view",
      "type": "function"
    },
    {
      "inputs": [
        {
          "internalType": "string",
          "name": "_code",
          "type": "string"
        }
      ],
      "name": "createLink",
      "outputs": [],
      "stateMutability": "nonpayable",
      "type": "function"
    },
    {
      "inputs": [
        {
          "internalType": "string",
          "name": "_code",
          "type": "string"
        }
      ],
      "name": "createReferral",
      "outputs": [],
      "stateMutability": "nonpayable",
      "type": "function"
    },
    {
      "inputs": [],
      "name": "getHasAccess",
      "outputs": [
        {
          "internalType": "bool",
          "name": "",
          "type": "bool"
        }
      ],
      "stateMutability": "view",
      "type": "function"
    },
    {
      "inputs": [
        {
          "internalType": "uint256",
          "name": "_id",
          "type": "uint256"
        }
      ],
      "name": "getLink",
      "outputs": [
        {
          "components": [
            {
              "internalType": "uint256",
              "name": "id",
              "type": "uint256"
            },
            {
              "internalType": "uint256",
              "name": "timestamp",
              "type": "uint256"
            },
            {
              "internalType": "string",
              "name": "code",
              "type": "string"
            },
            {
              "internalType": "address",
              "name": "walletAddress",
              "type": "address"
            }
          ],
          "internalType": "struct Referrals.Link",
          "name": "",
          "type": "tuple"
        }
      ],
      "stateMutability": "view",
      "type": "function"
    },
    {
      "inputs": [],
      "name": "getMyLink",
      "outputs": [
        {
          "components": [
            {
              "internalType": "uint256",
              "name": "id",
              "type": "uint256"
            },
            {
              "internalType": "uint256",
              "name": "timestamp",
              "type": "uint256"
            },
            {
              "internalType": "string",
              "name": "code",
              "type": "string"
            },
            {
              "internalType": "address",
              "name": "walletAddress",
              "type": "address"
            }
          ],
          "internalType": "struct Referrals.Link",
          "name": "",
          "type": "tuple"
        }
      ],
      "stateMutability": "view",
      "type": "function"
    },
    {
      "inputs": [],
      "name": "getMyReferrals",
      "outputs": [
        {
          "internalType": "uint256[]",
          "name": "",
          "type": "uint256[]"
        }
      ],
      "stateMutability": "view",
      "type": "function"
    },
    {
      "inputs": [
        {
          "internalType": "uint256",
          "name": "_id",
          "type": "uint256"
        }
      ],
      "name": "getReferral",
      "outputs": [
        {
          "components": [
            {
              "internalType": "uint256",
              "name": "id",
              "type": "uint256"
            },
            {
              "internalType": "uint256",
              "name": "timestamp",
              "type": "uint256"
            },
            {
              "internalType": "address",
              "name": "walletAddress",
              "type": "address"
            },
            {
              "internalType": "address",
              "name": "referrer",
              "type": "address"
            }
          ],
          "internalType": "struct Referrals.Referral",
          "name": "",
          "type": "tuple"
        }
      ],
      "stateMutability": "view",
      "type": "function"
    },
    {
      "inputs": [],
      "name": "getReferralCount",
      "outputs": [
        {
          "internalType": "uint256",
          "name": "",
          "type": "uint256"
        }
      ],
      "stateMutability": "view",
      "type": "function"
    },
    {
      "inputs": [
        {
          "internalType": "address",
          "name": "",
          "type": "address"
        }
      ],
      "name": "hasAccess",
      "outputs": [
        {
          "internalType": "bool",
          "name": "",
          "type": "bool"
        }
      ],
      "stateMutability": "view",
      "type": "function"
    },
    {
      "inputs": [
        {
          "internalType": "address",
          "name": "",
          "type": "address"
        }
      ],
      "name": "hasClaimed",
      "outputs": [
        {
          "internalType": "bool",
          "name": "",
          "type": "bool"
        }
      ],
      "stateMutability": "view",
      "type": "function"
    },
    {
      "inputs": [
        {
          "internalType": "string",
          "name": "_username",
          "type": "string"
        }
      ],
      "name": "hasCode",
      "outputs": [
        {
          "internalType": "bool",
          "name": "",
          "type": "bool"
        }
      ],
      "stateMutability": "view",
      "type": "function"
    },
    {
      "inputs": [],
      "name": "hasLink",
      "outputs": [
        {
          "internalType": "bool",
          "name": "",
          "type": "bool"
        }
      ],
      "stateMutability": "view",
      "type": "function"
    },
    {
      "inputs": [
        {
          "internalType": "address",
          "name": "forwarder",
          "type": "address"
        }
      ],
      "name": "isTrustedForwarder",
      "outputs": [
        {
          "internalType": "bool",
          "name": "",
          "type": "bool"
        }
      ],
      "stateMutability": "view",
      "type": "function"
    },
    {
      "inputs": [
        {
          "internalType": "uint256",
          "name": "",
          "type": "uint256"
        },
        {
          "internalType": "uint256",
          "name": "",
          "type": "uint256"
        }
      ],
      "name": "linkReferrals",
      "outputs": [
        {
          "internalType": "uint256",
          "name": "",
          "type": "uint256"
        }
      ],
      "stateMutability": "view",
      "type": "function"
    },
    {
      "inputs": [
        {
          "internalType": "uint256",
          "name": "",
          "type": "uint256"
        }
      ],
      "name": "links",
      "outputs": [
        {
          "internalType": "uint256",
          "name": "id",
          "type": "uint256"
        },
        {
          "internalType": "uint256",
          "name": "timestamp",
          "type": "uint256"
        },
        {
          "internalType": "string",
          "name": "code",
          "type": "string"
        },
        {
          "internalType": "address",
          "name": "walletAddress",
          "type": "address"
        }
      ],
      "stateMutability": "view",
      "type": "function"
    },
    {
      "inputs": [
        {
          "internalType": "address",
          "name": "",
          "type": "address"
        },
        {
          "internalType": "uint256",
          "name": "",
          "type": "uint256"
        }
      ],
      "name": "myReferrals",
      "outputs": [
        {
          "internalType": "uint256",
          "name": "",
          "type": "uint256"
        }
      ],
      "stateMutability": "view",
      "type": "function"
    },
    {
      "inputs": [
        {
          "internalType": "address",
          "name": "",
          "type": "address"
        }
      ],
      "name": "referralCount",
      "outputs": [
        {
          "internalType": "uint256",
          "name": "",
          "type": "uint256"
        }
      ],
      "stateMutability": "view",
      "type": "function"
    },
    {
      "inputs": [
        {
          "internalType": "uint256",
          "name": "",
          "type": "uint256"
        }
      ],
      "name": "referrals",
      "outputs": [
        {
          "internalType": "uint256",
          "name": "id",
          "type": "uint256"
        },
        {
          "internalType": "uint256",
          "name": "timestamp",
          "type": "uint256"
        },
        {
          "internalType": "address",
          "name": "walletAddress",
          "type": "address"
        },
        {
          "internalType": "address",
          "name": "referrer",
          "type": "address"
        }
      ],
      "stateMutability": "view",
      "type": "function"
    },
    {
      "inputs": [
        {
          "internalType": "address",
          "name": "",
          "type": "address"
        }
      ],
      "name": "walletToLinkId",
      "outputs": [
        {
          "internalType": "uint256",
          "name": "",
          "type": "uint256"
        }
      ],
      "stateMutability": "view",
      "type": "function"
    }
  ],
  "bytecode": "0x60c06040523480156200001157600080fd5b506040516200249938038062002499833981810160405281019062000037919062000126565b73bf175fcc7086b4f9bd59d5eae8ea67b8f940de0d8073ffffffffffffffffffffffffffffffffffffffff1660808173ffffffffffffffffffffffffffffffffffffffff1681525050508073ffffffffffffffffffffffffffffffffffffffff1660a08173ffffffffffffffffffffffffffffffffffffffff16815250505062000158565b600080fd5b600073ffffffffffffffffffffffffffffffffffffffff82169050919050565b6000620000ee82620000c1565b9050919050565b6200010081620000e1565b81146200010c57600080fd5b50565b6000815190506200012081620000f5565b92915050565b6000602082840312156200013f576200013e620000bc565b5b60006200014f848285016200010f565b91505092915050565b60805160a05161231b6200017e600039600061098f0152600061065d015261231b6000f3fe608060405234801561001057600080fd5b50600436106101375760003560e01c80638330d0d8116100b857806395a078e81161007c57806395a078e8146103b657806395d5d855146103e6578063ce97746114610402578063d557a28914610420578063db74559b14610450578063eba55fdd1461048057610137565b80638330d0d8146102e9578063852ba81014610319578063881d8a401461033757806388f867931461036a578063951130661461039a57610137565b806365649166116100ff578063656491661461021a57806370d64f5d1461023857806373b2e80e14610268578063741361461461029857806380b7c92b146102b657610137565b8063393b6df31461013c5780634347e7d31461016c578063444afaeb1461018a578063572b6c05146101ba5780635cea24f6146101ea575b600080fd5b610156600480360381019061015191906115b6565b61049e565b6040516101639190611726565b60405180910390f35b6101746105d6565b6040516101819190611757565b60405180910390f35b6101a4600480360381019061019f91906118a7565b610624565b6040516101b1919061190b565b60405180910390f35b6101d460048036038101906101cf9190611952565b610659565b6040516101e1919061190b565b60405180910390f35b61020460048036038101906101ff919061197f565b6106b1565b6040516102119190611757565b60405180910390f35b6102226106e2565b60405161022f9190611a6e565b60405180910390f35b610252600480360381019061024d9190611952565b61077e565b60405161025f9190611757565b60405180910390f35b610282600480360381019061027d9190611952565b610796565b60405161028f919061190b565b60405180910390f35b6102a06107b6565b6040516102ad919061190b565b60405180910390f35b6102d060048036038101906102cb91906115b6565b610811565b6040516102e09493929190611a9f565b60405180910390f35b61030360048036038101906102fe91906115b6565b610891565b6040516103109190611b39565b60405180910390f35b61032161098d565b60405161032e9190611bb3565b60405180910390f35b610351600480360381019061034c91906115b6565b6109b1565b6040516103619493929190611c18565b60405180910390f35b610384600480360381019061037f91906118a7565b610a99565b6040516103919190611757565b60405180910390f35b6103b460048036038101906103af91906118a7565b610ac7565b005b6103d060048036038101906103cb9190611952565b610dfb565b6040516103dd919061190b565b60405180910390f35b61040060048036038101906103fb9190611cc4565b610e1b565b005b61040a611280565b6040516104179190611726565b60405180910390f35b61043a60048036038101906104359190611d11565b6113fc565b6040516104479190611757565b60405180910390f35b61046a60048036038101906104659190611952565b61142d565b6040516104779190611757565b60405180910390f35b610488611445565b604051610495919061190b565b60405180910390f35b6104a66114da565b600082815481106104ba576104b9611d51565b5b906000526020600020906004020160405180608001604052908160008201548152602001600182015481526020016002820180546104f790611daf565b80601f016020809104026020016040519081016040528092919081815260200182805461052390611daf565b80156105705780601f1061054557610100808354040283529160200191610570565b820191906000526020600020905b81548152906001019060200180831161055357829003601f168201915b505050505081526020016003820160009054906101000a900473ffffffffffffffffffffffffffffffffffffffff1673ffffffffffffffffffffffffffffffffffffffff1673ffffffffffffffffffffffffffffffffffffffff16815250509050919050565b6000600760006105e46114a0565b73ffffffffffffffffffffffffffffffffffffffff1673ffffffffffffffffffffffffffffffffffffffff16815260200190815260200160002054905090565b60006003826040516106369190611e1c565b908152602001604051809103902060009054906101000a900460ff169050919050565b60007f000000000000000000000000000000000000000000000000000000000000000073ffffffffffffffffffffffffffffffffffffffff168273ffffffffffffffffffffffffffffffffffffffff16149050919050565b600460205281600052604060002081815481106106cd57600080fd5b90600052602060002001600091509150505481565b6060600460006106f06114a0565b73ffffffffffffffffffffffffffffffffffffffff1673ffffffffffffffffffffffffffffffffffffffff16815260200190815260200160002080548060200260200160405190810160405280929190818152602001828054801561077457602002820191906000526020600020905b815481526020019060010190808311610760575b5050505050905090565b60096020528060005260406000206000915090505481565b60066020528060005260406000206000915054906101000a900460ff1681565b6000600260006107c46114a0565b73ffffffffffffffffffffffffffffffffffffffff1673ffffffffffffffffffffffffffffffffffffffff16815260200190815260200160002060009054906101000a900460ff16905090565b6001818154811061082157600080fd5b90600052602060002090600402016000915090508060000154908060010154908060020160009054906101000a900473ffffffffffffffffffffffffffffffffffffffff16908060030160009054906101000a900473ffffffffffffffffffffffffffffffffffffffff16905084565b610899611518565b600182815481106108ad576108ac611d51565b5b906000526020600020906004020160405180608001604052908160008201548152602001600182015481526020016002820160009054906101000a900473ffffffffffffffffffffffffffffffffffffffff1673ffffffffffffffffffffffffffffffffffffffff1673ffffffffffffffffffffffffffffffffffffffff1681526020016003820160009054906101000a900473ffffffffffffffffffffffffffffffffffffffff1673ffffffffffffffffffffffffffffffffffffffff1673ffffffffffffffffffffffffffffffffffffffff16815250509050919050565b7f000000000000000000000000000000000000000000000000000000000000000081565b600081815481106109c157600080fd5b90600052602060002090600402016000915090508060000154908060010154908060020180546109f090611daf565b80601f0160208091040260200160405190810160405280929190818152602001828054610a1c90611daf565b8015610a695780601f10610a3e57610100808354040283529160200191610a69565b820191906000526020600020905b815481529060010190602001808311610a4c57829003601f168201915b5050505050908060030160009054906101000a900473ffffffffffffffffffffffffffffffffffffffff16905084565b6005818051602081018201805184825260208301602085012081835280955050505050506000915090505481565b600381604051610ad79190611e1c565b908152602001604051809103902060009054906101000a900460ff1615610b33576040517f08c379a0000000000000000000000000000000000000000000000000000000008152600401610b2a90611e7f565b60405180910390fd5b60026000610b3f6114a0565b73ffffffffffffffffffffffffffffffffffffffff1673ffffffffffffffffffffffffffffffffffffffff16815260200190815260200160002060009054906101000a900460ff1615610bc7576040517f08c379a0000000000000000000000000000000000000000000000000000000008152600401610bbe90611eeb565b60405180910390fd5b60008080549050905060006040518060800160405280838152602001428152602001848152602001610bf76114a0565b73ffffffffffffffffffffffffffffffffffffffff168152509050600081908060018154018082558091505060019003906000526020600020906004020160009091909190915060008201518160000155602082015181600101556040820151816002019081610c6791906120ad565b5060608201518160030160006101000a81548173ffffffffffffffffffffffffffffffffffffffff021916908373ffffffffffffffffffffffffffffffffffffffff16021790555050506001600384604051610cc39190611e1c565b908152602001604051809103902060006101000a81548160ff021916908315150217905550600160026000610cf66114a0565b73ffffffffffffffffffffffffffffffffffffffff1673ffffffffffffffffffffffffffffffffffffffff16815260200190815260200160002060006101000a81548160ff02191690831515021790555081600584604051610d589190611e1c565b9081526020016040518091039020819055508160096000610d776114a0565b73ffffffffffffffffffffffffffffffffffffffff1673ffffffffffffffffffffffffffffffffffffffff16815260200190815260200160002081905550817f67c14cd9e3068662e943daae895ef29f692b698884106fdc5c57935a0ca748c484610de06114a0565b604051610dee92919061217f565b60405180910390a2505050565b600a6020528060005260406000206000915054906101000a900460ff1681565b60038282604051610e2d9291906121d4565b908152602001604051809103902060009054906101000a900460ff16610e88576040517f08c379a0000000000000000000000000000000000000000000000000000000008152600401610e7f90612239565b60405180910390fd5b60006001805490509050600060058484604051610ea69291906121d4565b90815260200160405180910390205490506000808281548110610ecc57610ecb611d51565b5b90600052602060002090600402016040518060800160405290816000820154815260200160018201548152602001600282018054610f0990611daf565b80601f0160208091040260200160405190810160405280929190818152602001828054610f3590611daf565b8015610f825780601f10610f5757610100808354040283529160200191610f82565b820191906000526020600020905b815481529060010190602001808311610f6557829003601f168201915b505050505081526020016003820160009054906101000a900473ffffffffffffffffffffffffffffffffffffffff1673ffffffffffffffffffffffffffffffffffffffff1673ffffffffffffffffffffffffffffffffffffffff16815250509050600060405180608001604052808581526020014281526020016110046114a0565b73ffffffffffffffffffffffffffffffffffffffff168152602001836060015173ffffffffffffffffffffffffffffffffffffffff1681525090506001819080600181540180825580915050600190039060005260206000209060040201600090919091909150600082015181600001556020820151816001015560408201518160020160006101000a81548173ffffffffffffffffffffffffffffffffffffffff021916908373ffffffffffffffffffffffffffffffffffffffff16021790555060608201518160030160006101000a81548173ffffffffffffffffffffffffffffffffffffffff021916908373ffffffffffffffffffffffffffffffffffffffff160217905550505060046000836060015173ffffffffffffffffffffffffffffffffffffffff1673ffffffffffffffffffffffffffffffffffffffff168152602001908152602001600020849080600181540180825580915050600190039060005260206000200160009091909190915055600160076000846060015173ffffffffffffffffffffffffffffffffffffffff1673ffffffffffffffffffffffffffffffffffffffff16815260200190815260200160002060008282546111cd9190612288565b925050819055506001600a60006111e26114a0565b73ffffffffffffffffffffffffffffffffffffffff1673ffffffffffffffffffffffffffffffffffffffff16815260200190815260200160002060006101000a81548160ff021916908315150217905550837fbe59c31a2ad9a70b6bc8ae81d809b53f18c28b97bc3cc4f4e0fb74e47d3ef19361125d6114a0565b84606001516040516112709291906122bc565b60405180910390a2505050505050565b6112886114da565b6000600960006112966114a0565b73ffffffffffffffffffffffffffffffffffffffff1673ffffffffffffffffffffffffffffffffffffffff16815260200190815260200160002054815481106112e2576112e1611d51565b5b9060005260206000209060040201604051806080016040529081600082015481526020016001820154815260200160028201805461131f90611daf565b80601f016020809104026020016040519081016040528092919081815260200182805461134b90611daf565b80156113985780601f1061136d57610100808354040283529160200191611398565b820191906000526020600020905b81548152906001019060200180831161137b57829003601f168201915b505050505081526020016003820160009054906101000a900473ffffffffffffffffffffffffffffffffffffffff1673ffffffffffffffffffffffffffffffffffffffff1673ffffffffffffffffffffffffffffffffffffffff1681525050905090565b6008602052816000526040600020818154811061141857600080fd5b90600052602060002001600091509150505481565b60076020528060005260406000206000915090505481565b6000600a60006114536114a0565b73ffffffffffffffffffffffffffffffffffffffff1673ffffffffffffffffffffffffffffffffffffffff16815260200190815260200160002060009054906101000a900460ff16905090565b60006114ab33610659565b156114bf57601436033560601c90506114ce565b6114c76114d2565b90506114cf565b5b90565b600033905090565b6040518060800160405280600081526020016000815260200160608152602001600073ffffffffffffffffffffffffffffffffffffffff1681525090565b60405180608001604052806000815260200160008152602001600073ffffffffffffffffffffffffffffffffffffffff168152602001600073ffffffffffffffffffffffffffffffffffffffff1681525090565b6000604051905090565b600080fd5b600080fd5b6000819050919050565b61159381611580565b811461159e57600080fd5b50565b6000813590506115b08161158a565b92915050565b6000602082840312156115cc576115cb611576565b5b60006115da848285016115a1565b91505092915050565b6115ec81611580565b82525050565b600081519050919050565b600082825260208201905092915050565b60005b8381101561162c578082015181840152602081019050611611565b60008484015250505050565b6000601f19601f8301169050919050565b6000611654826115f2565b61165e81856115fd565b935061166e81856020860161160e565b61167781611638565b840191505092915050565b600073ffffffffffffffffffffffffffffffffffffffff82169050919050565b60006116ad82611682565b9050919050565b6116bd816116a2565b82525050565b60006080830160008301516116db60008601826115e3565b5060208301516116ee60208601826115e3565b50604083015184820360408601526117068282611649565b915050606083015161171b60608601826116b4565b508091505092915050565b6000602082019050818103600083015261174081846116c3565b905092915050565b61175181611580565b82525050565b600060208201905061176c6000830184611748565b92915050565b600080fd5b600080fd5b7f4e487b7100000000000000000000000000000000000000000000000000000000600052604160045260246000fd5b6117b482611638565b810181811067ffffffffffffffff821117156117d3576117d261177c565b5b80604052505050565b60006117e661156c565b90506117f282826117ab565b919050565b600067ffffffffffffffff8211156118125761181161177c565b5b61181b82611638565b9050602081019050919050565b82818337600083830152505050565b600061184a611845846117f7565b6117dc565b90508281526020810184848401111561186657611865611777565b5b611871848285611828565b509392505050565b600082601f83011261188e5761188d611772565b5b813561189e848260208601611837565b91505092915050565b6000602082840312156118bd576118bc611576565b5b600082013567ffffffffffffffff8111156118db576118da61157b565b5b6118e784828501611879565b91505092915050565b60008115159050919050565b611905816118f0565b82525050565b600060208201905061192060008301846118fc565b92915050565b61192f816116a2565b811461193a57600080fd5b50565b60008135905061194c81611926565b92915050565b60006020828403121561196857611967611576565b5b60006119768482850161193d565b91505092915050565b6000806040838503121561199657611995611576565b5b60006119a48582860161193d565b92505060206119b5858286016115a1565b9150509250929050565b600081519050919050565b600082825260208201905092915050565b6000819050602082019050919050565b60006119f783836115e3565b60208301905092915050565b6000602082019050919050565b6000611a1b826119bf565b611a2581856119ca565b9350611a30836119db565b8060005b83811015611a61578151611a4888826119eb565b9750611a5383611a03565b925050600181019050611a34565b5085935050505092915050565b60006020820190508181036000830152611a888184611a10565b905092915050565b611a99816116a2565b82525050565b6000608082019050611ab46000830187611748565b611ac16020830186611748565b611ace6040830185611a90565b611adb6060830184611a90565b95945050505050565b608082016000820151611afa60008501826115e3565b506020820151611b0d60208501826115e3565b506040820151611b2060408501826116b4565b506060820151611b3360608501826116b4565b50505050565b6000608082019050611b4e6000830184611ae4565b92915050565b6000819050919050565b6000611b79611b74611b6f84611682565b611b54565b611682565b9050919050565b6000611b8b82611b5e565b9050919050565b6000611b9d82611b80565b9050919050565b611bad81611b92565b82525050565b6000602082019050611bc86000830184611ba4565b92915050565b600082825260208201905092915050565b6000611bea826115f2565b611bf48185611bce565b9350611c0481856020860161160e565b611c0d81611638565b840191505092915050565b6000608082019050611c2d6000830187611748565b611c3a6020830186611748565b8181036040830152611c4c8185611bdf565b9050611c5b6060830184611a90565b95945050505050565b600080fd5b600080fd5b60008083601f840112611c8457611c83611772565b5b8235905067ffffffffffffffff811115611ca157611ca0611c64565b5b602083019150836001820283011115611cbd57611cbc611c69565b5b9250929050565b60008060208385031215611cdb57611cda611576565b5b600083013567ffffffffffffffff811115611cf957611cf861157b565b5b611d0585828601611c6e565b92509250509250929050565b60008060408385031215611d2857611d27611576565b5b6000611d36858286016115a1565b9250506020611d47858286016115a1565b9150509250929050565b7f4e487b7100000000000000000000000000000000000000000000000000000000600052603260045260246000fd5b7f4e487b7100000000000000000000000000000000000000000000000000000000600052602260045260246000fd5b60006002820490506001821680611dc757607f821691505b602082108103611dda57611dd9611d80565b5b50919050565b600081905092915050565b6000611df6826115f2565b611e008185611de0565b9350611e1081856020860161160e565b80840191505092915050565b6000611e288284611deb565b915081905092915050565b7f436f646520616c72656164792074616b656e0000000000000000000000000000600082015250565b6000611e69601283611bce565b9150611e7482611e33565b602082019050919050565b60006020820190508181036000830152611e9881611e5c565b9050919050565b7f596f7520616c726561647920686176652061206d6f6a6f206c696e6b00000000600082015250565b6000611ed5601c83611bce565b9150611ee082611e9f565b602082019050919050565b60006020820190508181036000830152611f0481611ec8565b9050919050565b60008190508160005260206000209050919050565b60006020601f8301049050919050565b600082821b905092915050565b600060088302611f6d7fffffffffffffffffffffffffffffffffffffffffffffffffffffffffffffffff82611f30565b611f778683611f30565b95508019841693508086168417925050509392505050565b6000611faa611fa5611fa084611580565b611b54565b611580565b9050919050565b6000819050919050565b611fc483611f8f565b611fd8611fd082611fb1565b848454611f3d565b825550505050565b600090565b611fed611fe0565b611ff8818484611fbb565b505050565b5b8181101561201c57612011600082611fe5565b600181019050611ffe565b5050565b601f8211156120615761203281611f0b565b61203b84611f20565b8101602085101561204a578190505b61205e61205685611f20565b830182611ffd565b50505b505050565b600082821c905092915050565b600061208460001984600802612066565b1980831691505092915050565b600061209d8383612073565b9150826002028217905092915050565b6120b6826115f2565b67ffffffffffffffff8111156120cf576120ce61177c565b5b6120d98254611daf565b6120e4828285612020565b600060209050601f8311600181146121175760008415612105578287015190505b61210f8582612091565b865550612177565b601f19841661212586611f0b565b60005b8281101561214d57848901518255600182019150602085019450602081019050612128565b8683101561216a5784890151612166601f891682612073565b8355505b6001600288020188555050505b505050505050565b600060408201905081810360008301526121998185611bdf565b90506121a86020830184611a90565b9392505050565b60006121bb8385611de0565b93506121c8838584611828565b82840190509392505050565b60006121e18284866121af565b91508190509392505050565b7f5468617420636f646520646f6573206e6f742065786973742e00000000000000600082015250565b6000612223601983611bce565b915061222e826121ed565b602082019050919050565b6000602082019050818103600083015261225281612216565b9050919050565b7f4e487b7100000000000000000000000000000000000000000000000000000000600052601160045260246000fd5b600061229382611580565b915061229e83611580565b92508282019050808211156122b6576122b5612259565b5b92915050565b60006040820190506122d16000830185611a90565b6122de6020830184611a90565b939250505056fea26469706673582212200ffb389b258e4682ba2c112e64ad5f0c340a9c1a5d791f19a8ecdec8ba0c17b464736f6c63430008110033",
  "linkReferences": {},
  "deployedLinkReferences": {}
}